S0160000736F7274696E6750726F6A6563742E7372656331
S1130000CAC20000F1C20000EFC200005FC40000D9
S11300100AC50000E9C20000E7C20000E5C2000012
S1130020E3C20000E1C20000DFC20000DDC2000044
S1130030DBC20000D9C20000D7C20000D5C2000054
S1130040D3C20000D1C20000CFC20000CDC2000064
S1130050CBC200000C94EB0EC7C20000C5C2000066
S1130060C3C20000C1C20000BFC20000BDC2000084
S1130070BBC20000BBC30000B7C20000B5C2000091
S1130080B3C20000B1C20000AFC20000ADC20000A4
S1130090ABC20000A9C2000000000000003E5B4F9C
S11300A05B3E3E6B4F6B3E1C3E7C3E1C183C7E3CD4
S11300B0181C577D571C1C5E7F5E1C00183C1800E2
S11300C0FFE7C3E7FF0018241800FFE7DBE7FF3072
S11300D0483A060E2629792926407F050507407FE0
S11300E005253F5A3CE73C5A7F3E1C1C08081C1C53
S11300F03E7F14227F22145F5F005F5F06097F0149
S11301007F006689956A606060606094A2FFA29433
S113011008047E040810207E201008082A1C080801
S11301201C2A08081E101010100C1E0C1E0C30384F
S11301303E3830060E3E0E06000000000000005F50
S113014000000007000700147F147F14242A7F2A6C
S1130150122313086462364956205000080703002E
S1130160001C2241000041221C002A1C7F1C2A087A
S1130170083E0808008070300008080808080000DD
S113018060600020100804023E5149453E00427F51
S1130190400072494949462141494D331814127FA0
S11301A01027454545393C4A494931412111090740
S11301B03649494936464949291E000014000000C1
S11301C04034000000081422411414141414004193
S11301D022140802015909063E415D594E7C121150
S11301E0127C7F494949363E414141227F41414188
S11301F03E7F494949417F090909013E4141517303
S11302007F0808087F00417F41002040413F017F73
S1130210081422417F404040407F021C027F7F043B
S113022008107F3E4141413E7F090909063E415184
S1130230215E7F09192946264949493203017F0174
S1130240033F4040403F1F2040201F3F4038403F75
S1130250631408146303047804036159494D43008B
S11302607F4141410204081020004141417F0402C2
S11302700102044040404040000307080020545459
S113028078407F2844443838444444283844442837
S11302907F385454541800087E090218A4A49C788A
S11302A07F0804047800447D40002040403D007FE6
S11302B01028440000417F40007C047804787C08C6
S11302C00404783844444438FC182424181824249A
S11302D018FC7C08040408485454542404043F447F
S11302E0243C4040207C1C2040201C3C4030403CAE
S11302F044281028444C9090907C4464544C44000E
S11303000836410000007700000041360800020171
S11303100204023C2623263C1EA1A161123A40405D
S1130320207A3854545559215555794122545478DA
S113033042215554784020545579400C1E52721273
S113034039555555593954545459395554545800FC
S113035000457C410002457D420001457C407D1200
S113036011127DF0282528F07C5455450020545462
S11303707C547C0A097F4932494949323A4444440D
S11303803A324A4848303A4141217A3A4240207848
S1130390009DA0A07D3D4242423D3D4040403D3C49
S11303A024FF2424487E4943662B2FFC2F2BFF096E
S11303B029F620C0887E0903205454794100004462
S11303C07D413048484A32384040227A007A0A0A4D
S11303D0727D0D19317D2629292F282629292926C0
S11303E030484D4020380808080808080808382F05
S11303F010C8ACBA2F102834FA00007B000008148F
S11304002A142222142A1408AA005500AAAA55AABA
S113041055AA000000FF00101010FF00141414FF70
S1130420001010FF00FF1010F010F0141414FC0062
S11304301414F700FF0000FF00FF1414F404FC146C
S11304401417101F10101F101F1414141F00101065
S113045010F0000000001F101010101F10101010DA
S1130460F010000000FF101010101010101010FFFA
S113047010000000FF140000FF00FF00001F101711
S11304800000FC04F414141710171414F404F400FA
S113049000FF00F714141414141414F700F71414C0
S11304A014171410101F101F141414F4141010F047
S11304B010F000001F101F0000001F14000000FCBB
S11304C0140000F010F01010FF10FF141414FF14A7
S11304D01010101F00000000F010FFFFFFFFFFF0DE
S11304E0F0F0F0F0FFFFFF0000000000FFFF0F0F2F
S11304F00F0F0F3844443844FC4A4A4A347E0202FF
S11305000606027E027E0263554941633844443C38
S113051004407E201E2006027E020299A5E7A599CA
S11305201C2A492A1C4C7201724C304A4D4D303001
S113053048784830BC625A463D3E494949007E01EC
S113054001017E2A2A2A2A2A44445F444440514A0B
S1130550444040444A51400000FF0103E080FF0052
S11305600008086B6B083612362436060F090F068E
S1130570000018180000001010003040FF010100B6
S11305801F01011E00191D1712003C3C3C3C0000D9
S113059000000000560911241FBECFEFD0E2DEBFD9
S11305A0CDBF12E0A0E0B1E0E0EEF6E200E00BBF68
S11305B002C007900D92A233B107D9F726E0A2E357
S11305C0B2E001C01D92A735B207E1F712E0CBEC0F
S11305D0D2E004C02197FE010E948A10CA3CD107D0
S11305E0C9F711D50C946E13B6C210BAEAE7F0E05D
S11305F0808180688083808187608083ECE7F0E07D
S11306008081816480830895CF93DF93EC0180918E
S11306103D028830C0F520910201309103018091A0
S11306200001909101012817390740F480910201DB
S113063090910301909301018093000186E492E07C
S113064055D32FE531E040E050E060E070E086E40F
S113065092E0F5D39E0140E150E060E070E086E472
S113066092E0EDD320913D0230E040E250E060E0C2
S113067070E086E492E019D486E492E048D3809155
S11306803D02883040F210923D02DF91CF910895EF
S113069086E492E02BD32FE531E040E050E060E0C7
S11306A070E086E492E0CBD320E131E040E150E019
S11306B060E070E086E492E0C2D320E030E040E203
S11306C050E060E070E086E492E0EFD386E492E0EC
S11306D01ED378940E945F0C80E191E095DF8091B5
S11306E0000190910101059790930B0180930A01F9
S11306F086E191E089DF80910001909101010597E5
S113070090930901809308018CE191E07DDF809151
S113071000019091010105979093070180930601D0
S113072082E291E071DF80910001909101010597CF
S113073090930501809304010E94640C86E492E086
S1130740D5D22BE231E040E050E060E070E086E496
S113075092E075D320910A0130910B0140E050E002
S113076068E170E086E492E0A0D32EE231E040E15B
S113077050E060E070E086E492E061D320910801EB
S11307803091090140E150E068E170E086E492E0D4
S11307908CD321E331E040E250E060E070E086E495
S11307A092E04DD3209106013091070140E250E0E0
S11307B068E170E086E492E078D324E331E040E33A
S11307C050E060E070E086E492E039D320910401C7
S11307D03091050140E350E068E170E086E492E086
S11307E064D386E492E093D2F89408951F920F9212
S11307F00FB60F9211240BB60F922F933F938F9342
S11308009F93EF93FF93809132028032A0F4209162
S11308107800309179008091330290913402820FF4
S1130820931F9093340280933302809132028F5F3E
S1130830809332022DC080913202803249F580913A
S113084033029091340296958795929582958F7094
S113085089279F70892790933402809333021092E2
S1130860320220913302309134028091020190913E
S113087003012817390740F4809133029091340220
S11308809093030180930201109234021092330278
S1130890EAE7F0E0808180648083FF91EF919F918B
S11308A08F913F912F910F900BBE0F900FBE0F9021
S11308B01F9018958AB1837F8AB91DBAE9E6F0E0E2
S11308C08081806980838CE08DBB08951F920F9294
S11308D00FB60F9211240BB60F922F933F934F93A1
S11308E05F936F937F938F939F93AF93BF93EF9394
S11308F0FF9385E090E00E946C104A9B15C08FEF37
S113090093E09093030180930201109232021092BB
S1130910340210923302EAE7F0E080818860808339
S11309208081806480836AC04A9968C0EAE7F0E005
S11309308081877F808380818F7B808320910201E7
S11309403091030180910A0190910B018217930762
S113095018F12091020130910301809108019091D6
S1130960090182179307D0F020910201309103010D
S113097080910601909107018217930788F02091D6
S113098002013091030180910401909105018217C5
S1130990930740F094E007C090E005C091E003C0E5
S11309A092E001C093E080913D02883018F08AEA19
S11309B088B924C080913D0281110FC080913D020D
S11309C08F5F80933D02E0913B02F0E0E25CFD4FDB
S11309D0908381E080933A0211C080913D028F5F41
S11309E080933D0280913B028F5F877080933B022E
S11309F0E0913B02F0E0E25CFD4F908384E08CBB2D
S1130A00FF91EF91BF91AF919F918F917F916F91E2
S1130A105F914F913F912F910F900BBE0F900FBE9E
S1130A200F901F9018951F920F920FB60F921124DA
S1130A300BB60F922F933F934F935F936F937F93D4
S1130A408F939F93AF93BF93EF93FF938AE090E0CC
S1130A500E946C104B996AC080915106882309F456
S1130A605FC0E0913C02F0E0E25CFD4F80818111C7
S1130A7006C0809139028F5F8093390229C0E091CA
S1130A803C02F0E0E25CFD4F8081813031F48091E2
S1130A9038028F5F809338021BC0E0913C02F0E083
S1130AA0E25CFD4F8081823031F4809137028F5FA8
S1130AB0809337020DC0E0913C02F0E0E25CFD4F10
S1130AC08081833029F4809136028F5F80933602CF
S1130AD080913D02823018F410923D0227C080912B
S1130AE03C028F5F8770E0913C02F0E0E25CFD4FD6
S1130AF02081E82FF0E0E25CFD4F9081291729F076
S1130B0091E0909350061092510680933C0280919C
S1130B103D02815080933D0281E080933A0206C0F9
S1130B2082B18F7382B981E08093350288E08CBBF7
S1130B30FF91EF91BF91AF919F918F917F916F91B1
S1130B405F914F913F912F910F900BBE0F900FBE6D
S1130B500F901F9018951F920F920FB60F921124A9
S1130B608F938AEA88B98F910F900FBE0F901F90D0
S1130B7018956623D4F04034C0F4242F2695269586
S1130B80269570E030E8239F600D711D1124FC014F
S1130B90E60FF71F477081E090E002C0880F991FAD
S1130BA04A95E2F79081892B80830895FF920F93F1
S1130BB01F93CF93DF93222361F0C42FF62E8C0171
S1130BC0D22FD40F4C2F6F2DC801D3DFCF5FCD139D
S1130BD0F9CFDF91CF911F910F91FF900895FF926C
S1130BE00F931F93CF93DF93222361F0F42EC62F2C
S1130BF08C01D22FD60F4F2D6C2FC801BADFCF5FD7
S1130C00CD13F9CFDF91CF911F910F91FF900895EC
S1130C10CF92DF92EF92FF920F931F93CF93DF93C4
S1130C20EC01F62E142FD22EE22EE61AE394C02EF7
S1130C30C41A2E2DD4DF2E2D402F6F2DCE01CFDFE1
S1130C402C2D412F6F2DCE01B1DF2C2D412F6D2D79
S1130C50CE01ACDFDF91CF911F910F91FF90EF9008
S1130C60DF90CF9008956F927F928F929F92AF9270
S1130C70BF92CF92DF92EF92FF920F931F93CF9385
S1130C80DF936C01642EE11002C0C2DF20C0041B9C
S1130C902F5F261B822E912C18141904C4F4762E6F
S1130CA0A12CB12CE02EF12C162DC0E0D0E0412F68
S1130CB0672DC6015EDF21961F5FEC16FD06BCF7AB
S1130CC08FEFA81AB80A7394A814B90469F7DF91CE
S1130CD0CF911F910F91FF90EF90DF90CF90BF9035
S1130CE0AF909F908F907F906F900895FC019C5FD0
S1130CF01192E817F907E1F70895CF93DF93EC0118
S1130D009C5FF8D5CE01F2DFDF91CF910895BC014D
S1130D109C5F45C608952F923F924F925F926F92C7
S1130D207F928F929F92AF92BF92CF92DF92EF9277
S1130D30FF920F931F93CF93DF9300D000D01F92A5
S1130D40CDB7DEB75C014B8348013701CD826A839E
S1130D502C2C260E30E06901CC0CDD1CCC0CDD1CE7
S1130D602C0D3D1DC90188569F4F6C01362E1982EA
S1130D70442E98E0490EE981E53009F441C0F601BA
S1130D8014913FC010FF11C0FD81F13029F44C8152
S1130D906A81C501EEDE1CC0EE24E3940F2D222DE2
S1130DA0452D632DC5015FDF13C06814790481F0FC
S1130DB08D81813029F44C816A81C501DADE08C055
S1130DC0EE24E3940F2D222D452D632DC5014BDF19
S1130DD016959D81590EF90EEC81EF5FEC83E411B9
S1130DE0D1CFF981FF5FF983390E290E8A818F5F94
S1130DF08A839FEFC91AD90AF63009F0BCCF07C01D
S1130E0010E05B80F52CED81FE0E5C82BBCF0F9071
S1130E100F900F900F900F90DF91CF911F910F9132
S1130E20FF90EF90DF90CF90BF90AF909F908F9006
S1130E307F906F905F904F903F902F9008956F92A6
S1130E407F928F929F92AF92BF92CF92EF92FF9236
S1130E500F931F93CF93F901C62F20812223C1F052
S1130E605F013A014C018FEFA81AB80A6C2F70E0A9
S1130E706894CC24C1F8E12CF12C00E010E0A3012B
S1130E80C40149DFC45FF50121915F012111EECF57
S1130E90CF911F910F91FF90EF90CF90BF90AF90A3
S1130EA09F908F907F906F9008958F929F92AF92B2
S1130EB0BF92CF92DF92EF92FF920F931F93CF9343
S1130EC0DF93CDB7DEB76C015B014A01EDB6FEB628
S1130ED02A3031054CF02436310544F0283E43E0F5
S1130EE0340734F087E005C082E003C083E001C02A
S1130EF084E04DB75EB7481B51090FB6F8945EBF46
S1130F000FBE4DBF0DB71EB70F5F1F4F3F932F93FB
S1130F1087E391E09F938F931F930F930E94931005
S1130F20202F312FA401B501C60189DF0F900F9046
S1130F300F900F900F900F900FB6F894FEBE0FBE57
S1130F40EDBEDF91CF911F910F91FF90EF90DF9055
S1130F50CF90BF90AF909F908F9008950895FC011B
S1130F6060831092B90080E28093B8000895DC0198
S1130F7084EA8093BC00ECEBF0E090819923ECF7D9
S1130F809091B900987F11969C931197983011F025
S1130F909031B9F48C918093BB0084E88093BC00B9
S1130FA0ECEBF0E090819923ECF79091B900987FF5
S1130FB011969C93983139F081E0903429F480E0C3
S1130FC0089581E0089580E00895DC016093BB00FA
S1130FD084E88093BC00ECEBF0E090819923ECF77B
S1130FE09091B900987F11969C9381E0983209F40E
S1130FF080E0089584E98093BC00ECEBF0E080810C
S113100084FDFDCF0895F894E1E6F0E080E8808364
S113101010828DB18E708DB987B18FEF87B984B18D
S11310208F7184B985B1806E85B98DB18F7C8DB98E
S11310308EB180638EB9D9DA24D40E9460103ADC70
S113104020D4F3D441D482EC35D47FD5D0E002E06F
S1131050DD24D394ED2E0F2EF3E0FF2EF02D14E0BB
S1131060C02E28D1CD2F659902C053D1CD2D1F9903
S113107002C020D1CE2D1D99F6CF84E190E00E94CC
S11310806C101D9BFECF84E190E00E946C10C13077
S113109081F0CCE2D0E05E010F2EF0E9CF2ED12C0E
S11310A0F02D0F2EFEE5EF2EF12CF02D02EC10E0CA
S11310B060C05ED1C02F6599DCC0C43009F0D9C0CE
S11310C0D5C0C23009F0D7C0D9C0659BFECF84E13A
S11310D090E00E946C106ED1C12FEDCFC33009F0A7
S11310E0D1C0D3C01F9BFECF84E190E0F5D762D17D
S11310F0C12FE1CFC43009F0CCC0CEC01D99DBCFE5
S113110084E190E0E9D71D9BFECF84E190E0E4D731
S1131110C330D1F4BDDA80E090E0FC01E25CFD4F25
S11311201082019688309105C1F7D0933C02D09388
S11311303B021D99FECF84E190E0CED71D9BFECFEC
S113114084E190E0C9D7B5CFC23011F4FED488CF82
S1131150C43009F0B0CF0ED5ACCF70D11E9B09C0FE
S11311601F9902C06BD1FACF888185FDF7CF4ED28B
S1131170F5CF86E492E0BADD2AE331E040E050E0C6
S113118060E070E086E492E05ADE86E492E0BFDD3F
S113119096D355D47894912C80913A02882309F4FB
S11311A040C0F89480915006882329F088EC90E0A0
S11311B093D710925006E0913C02F0E0E25CFD4FC0
S11311C08081811105C0109354060093530626C0F4
S11311D0E0913C02F0E0E25CFD4F8081813029F433
S11311E0F0925406E092530619C0E0913C02F0E0FC
S11311F0E25CFD4F8081823029F4D0925406C09283
S113120053060CC0E0913C02F0E0E25CFD4F8081AB
S1131210833021F4B0925406A092530610923A02FD
S11312207894888184FD08C082B18F7382B984E682
S113123090E052D7F89491CF888185FF30C09920EF
S113124009F4AACF65E471E0892D69D287E2891592
S113125010F09394A1CF80913D0281119DCF84EF32
S113126091E03AD782B18F7382B977CFC5D0CF2DB1
S113127022CF659B26CF1F9B31CF04C084E190E031
S11312802BD723CF1F9B36CF04C084E190E024D713
S113129029CF1E9933CFE5CE6BD0CC2D0CCF65E48E
S11312A071E081E03CD299249394D3CF86E492E018
S11312B024CD0895EF920F9386E492E017DD2BE49A
S11312C031E040E050E060E070E086E492E0B7DDB9
S11312D0EE24E39401E12FE740E160E086E492E04C
S11312E0C2DC27E531E044E150E060E070E086E4F0
S11312F092E0A5DD2EE531E044E250E060E070E0EC
S113130086E492E09CDD86E492E001DD0F91EF90AB
S11313100895EF920F9386E492E0E8DC2BE431E049
S113132040E050E060E070E086E492E088DDEE2486
S1131330E39401E12FE740E160E086E492E093DC8E
S113134029E631E044E150E060E070E086E492E0B8
S113135076DD20E731E044E250E060E070E086E4CE
S113136092E06DDD86E492E0D2DC0F91EF90089577
S113137086E492E0BBDC2BE731E040E050E060E043
S113138070E086E492E05BDD26E831E040E150E085
S113139060E070E086E492E052DD2FE831E040E264
S11313A050E060E070E086E492E049DD86E492E09B
S11313B0AECC089586E492E099DC2AE931E040E07D
S11313C050E060E070E086E492E039DD25EA31E047
S11313D040E150E060E070E086E492E030DD2FE828
S11313E031E040E250E060E070E086E492E027DD26
S11313F086E492E08CCC089586E492E077DC2AE9D6
S113140031E040E050E060E070E086E492E017DD17
S113141026E831E040E150E060E070E086E492E0EC
S11314200EDD2EEA31E040E250E060E070E086E458
S113143092E005DD86E492E06ACC0895EF920F9382
S1131440CF93DF9386E492E051DC29EB31E040E076
S113145050E060E070E086E492E0F1DC209102016B
S11314603091030140E050E068E470E086E492E0EB
S11314701CDDEE24E39401E12FE740E160E086E423
S113148092E0F1DBCEE3D2E0288130E044E150E0A9
S113149060E070E086E492E008DD298130E044E118
S11314A050E06CE070E086E492E0FFDC2A8130E0FA
S11314B044E150E068E170E086E492E0F6DC2B81E0
S11314C030E044E150E064E270E086E492E0EDDC78
S11314D02C8130E044E150E060E370E086E492E087
S11314E0E4DC2D8130E044E150E06CE370E086E41C
S11314F092E0DBDC2E8130E044E150E068E470E00F
S113150086E492E0D2DC2F8130E044E150E064E5EF
S113151070E086E492E0C9DC20913D0230E044E1D1
S113152050E06CE670E086E492E0BFDC60913C023F
S113153070E0CB01880F991F680F791F660F771F22
S1131540660F771F2FEB31E044E250E086E492E02F
S113155076DC60913B0270E0CB01880F991F680F25
S1131560791F660F771F660F771F21EC31E044E285
S113157050E086E492E063DC86E492E0C8DBDF912D
S1131580CF910F91EF90089586E492E0AFDB23ECC6
S113159031E040E050E060E070E086E492E04FDC4F
S11315A0209153063091540640E050E06CE370E023
S11315B086E492E07ADC29EC31E040E150E060E03E
S11315C070E086E492E03BDC2091530630915406AF
S11315D040E150E06CE370E086E492E066DC2EECDF
S11315E031E040E250E060E070E086E492E027DC25
S11315F020910F0130E040E250E068E470E086E4BE
S113160092E053DC86E492E082CB089586E492E093
S11316106DDB25ED31E040E050E060E070E086E411
S113162092E00DDC20913D0230E040E050E060E6C5
S113163070E086E492E039DC2EED31E040E150E0E8
S113164060E070E086E492E0FADB50913D02209184
S1131650390240913802909137028091360230E08D
S1131660250F311D240F311D290F311D280F311D68
S113167040E150E060E670E086E492E016DC27EE9C
S113168031E040E250E060E070E086E492E0D7DBD5
S11316902091390230E040E250E068E170E086E4F5
S11316A092E003DC2AEE31E040E250E06CE370E0CB
S11316B086E492E0C4DB2091380230E040E250E05E
S11316C064E570E086E492E0F0DB2DEE31E040E387
S11316D050E060E070E086E492E0B1DB20913702F4
S11316E030E040E350E068E170E086E492E0DDDB66
S11316F020EF31E040E350E06CE370E086E492E0F8
S11317009EDB2091360230E040E350E064E570E077
S113171086E492E0CADB86E492E0F9CA08950F9366
S11317201F93CF93C82F8B0186E492E0DFDA9801F0
S113173040E050E060E070E086E492E080DB2C2F33
S113174030E040E150E060E070E086E492E0ADDB40
S113175086E492E0DCDACF911F910F910895CF9344
S1131760C82F86E492E0C2DAC1111CC023EF31E035
S113177040E050E060E070E086E492E060DB28EF57
S113178031E040E150E060E070E086E492E057DB55
S11317902DEF31E040E250E060E070E086E492E05A
S11317A04EDB3BC0C130E1F422E032E040E050E0E7
S11317B060E070E086E492E042DB27E032E040E162
S11317C050E060E070E086E492E039DB2DEF31E038
S11317D040E250E060E070E086E492E030DB1DC05F
S11317E0C230D9F422E032E040E050E060E070E042
S11317F086E492E024DB28EF31E040E150E060E051
S113180070E086E492E01BDB2CE032E040E250E042
S113181060E070E086E492E012DB86E492E077DA3E
S1131820CF91089586E492E061DA21E132E040E06C
S113183050E060E070E086E492E001DB2091550620
S11318403091560640E150E060E070E086E492E0BA
S11318502CDB23EC31E040E250E060E070E086E411
S113186092E0EDDA209153063091540640E350E0C3
S113187060E070E086E492E018DB86E492E047CA18
S1131880089584B1816184B981B1806C81B9209A51
S1131890E0EBF0E0808183608083808180688083D6
S11318A0E1EBF0E080818260808380E88093B30084
S11318B0289808951092B2008093B300089582B1DD
S11318C08F73806482B9089582B18F7382B9089549
S11318D01F93CF93DF93EC01162F49DB60E0CE0119
S11318E074DB612FCE0171DBCE0184DBDF91CF91FC
S11318F01F910895CF93DF93EC0130DB68E7CE01AD
S11319002EDB6EEACE01E4DF65EDCE01E1DF60E8B7
S1131910CE01DEDF68EACE01DBDF6FE3CE01D8DF84
S113192063EDCE01D5DF60E0CE01D2DF60E4CE010D
S1131930CFDF6DE8CE01CCDF64E1CE01C9DF60E228
S1131940CE01C6DF60E0CE01C3DF61EACE01C0DFB5
S113195068ECCE01BDDF6AEDCE01BADF62E1CE01F3
S1131960B7DF61E8CE01B4DF6FECCE01B1DF69ED22
S1131970CE01AEDF61EFCE01ABDF6BEDCE01A8DFB0
S113198060E4CE01A5DF64EACE01A2DF66EACE01FF
S11319909FDF6FEACE019CDFDF91CF910895CF9254
S11319A0DF92EF92FF920F931F93CF93DF93082F51
S11319B0192F7B0161E28CDF60E0802F912F88DF9B
S11319C06FE7802F912F84DF62E2802F912F80DFD9
S11319D060E0802F912F7CDF67E0802F912F78DFEC
S11319E0E7018CEFF81A802F912FC1DA60E4802F81
S11319F0912FEBDA6E0180E1C80ED11C6991802F22
S1131A00912FE3DACC15DD05C9F7802F912FF2DA97
S1131A10E601EC14FD0439F7DF91CF911F910F918A
S1131A20FF90EF90DF90CF90089581B18F6381B9DB
S1131A3084B5826084BD8CE887BD16BC0895EEE64B
S1131A40F0E0808182608083A99A85B5856085BD38
S1131A500895BF92CF92DF92EF92FF920F931F935C
S1131A60CF93DF93181619060CF065C08B01EC01B7
S1131A70C12CD12C0F2EF2E1BF2EF02D0F2EF7EC3E
S1131A80EF2EF12CF02D01151105D9F0809155069A
S1131A909091560601969093560680935506809130
S1131AA052068F5F83708093520680915506909101
S1131AB05606883C9105FCF0109256061092550685
S1131AC01AC08091550690915606892B29F4F092FC
S1131AD05606E092550609C0809155069091560627
S1131AE00197909356068093550680915206815033
S1131AF083708093520682B1E0915206807CF0E0BC
S1131B00E25DFD4F9081892B82B98AE0C816D10429
S1131B1014F4BA9406C0CE018C199D0944970CF4B0
S1131B20B3948B2D90E0D8D28FEFC81AD80ACC1575
S1131B30DD0509F0A8CFDF91CF911F910F91FF90A0
S1131B40EF90DF90CF90BF90089561E070E089E15D
S1131B5090E07FDF669B07C061E070E081E090E089
S1131B6078DF6699F9CF88EC90E0909356068093DD
S1131B70550608950F2EF6E9CF2ED12CF02D0F2EF9
S1131B80FCE7EF2EF12CF02DCAE7D0E00F2EF9E799
S1131B90AF2EB12CF02D0F2EFDE02F2EF1E03F2EB5
S1131BA0F02D0F2EFFE14F2EF2E05F2EF02D0F2EC1
S1131BB0FCE06F2EF1E07F2EF02D0F2EFAE18F2E38
S1131BC0F2E09F2EF02D80E0CADD10E01F990DC0D9
S1131BD084E190E081D21F9BFECF84E190E07CD22F
S1131BE0112309F442C0115040C065990DC084E12D
S1131BF090E072D2659BFECF84E190E06DD21F5FCE
S1131C00133098F112E031C01D992DC084E190E0A9
S1131C1063D21D9BFECF84E190E05ED211110BC014
S1131C2090924A06809249068EE091E090934F0686
S1131C3080934E061DC0113049F450924A064092DA
S1131C40490670924F0660924E0612C0123081F41B
S1131C5069E272E070934A066093490630924F0637
S1131C6020924E0605C0649B6DC0812F78DDAECFF7
S1131C70F70180818C7F8260808380818062808391
S1131C808881877F8883E0914E06F0914F0680819A
S1131C906091490670914A0642DD88818064888398
S1131CA0888186FDFDCF80914B068830D0F4F50104
S1131CB0908120914C0630914D06A901490F511D88
S1131CC0369527953695279536952795BA01621B43
S1131CD0730B70934D0660934C068F5F80934B0695
S1131CE01BC0E0914E06F0914F0680914C069091F6
S1131CF04D069695879596958795969587958083B5
S1131D00E0914E06F0914F068081609149067091F2
S1131D104A0605DD10924B061E99BFCF84E190E080
S1131D20DBD11E9BFECF84E190E0D6D1F701808108
S1131D308C7F8160808380818F7D808388818860AF
S1131D40888341CF6FDD01DF7ADE10925406109252
S1131D505306789465991BC084E190E0BDD1659BDE
S1131D60FECF84E190E0B8D180915306909154065F
S1131D70C297909354068093530680915306909192
S1131D805406992324F4D0925406C09253061F9902
S1131D901CC084E190E0A0D11F9BFECF84E190E0C1
S1131DA09BD18091530690915406C2969093540609
S1131DB0809353068091530690915406883C910574
S1131DC024F010925406109253061E9902C0F894FF
S1131DD0FACEDADBBFCF1F920F920FB60F92112407
S1131DE00BB60F921F932F933F934F935F936F9371
S1131DF07F938F939F93AF93BF93CF93DF93EF938F
S1131E00FF93C0915306D09154068091550690914A
S1131E105606C81BD90BCE0122F4882799278C1BA0
S1131E209D0B182F853610F018EC181B1F3008F086
S1131E30B6C080914806882309F446C01092510622
S1131E401111AFC084E190E047D110924806E091AF
S1131E503C02F0E0E25CFD4F8081811107C082EC1E
S1131E6090E090935406809353069BC0E0913C020B
S1131E70F0E0E25CFD4F8081813039F48EE590E042
S1131E8090935406809353068CC0E0913C02F0E09A
S1131E90E25CFD4F8081823039F480E990E09093D8
S1131EA05406809353067DC0E0913C02F0E0E25C6E
S1131EB0FD4F8081833009F074C08CE290E09093F0
S1131EC05406809353066DC080913502882309F42B
S1131ED062C01092510682B18F73806482B91092ED
S1131EE03502E0913C02F0E0E25CFD4F808181111B
S1131EF006C0809139028F5F8093390229C0E09136
S1131F003C02F0E0E25CFD4F8081813031F480914D
S1131F1038028F5F809338021BC0E0913C02F0E0EE
S1131F20E25CFD4F8081823031F4809137028F5F13
S1131F30809337020DC0E0913C02F0E0E25CFD4F7B
S1131F408081833029F4809136028F5F809336023A
S1131F5080913D02823018F410923D0222C080919B
S1131F603C028F5F8770E0913C02F0E0E25CFD4F41
S1131F702081E82FF0E0E25CFD4F9081291719F0F1
S1131F8091E09093480680933C0280913D028150F9
S1131F9080933D0206C081E08093510602C01092F6
S1131FA05106CE0101978336910520F0CC398FEF8D
S1131FB0D807DCF4809155069091560601969093CB
S1131FC05606809355068091550690915606883C96
S1131FD0910524F0109256061092550680915206EF
S1131FE08F5F83708093520624C0CE018C599F4F1B
S1131FF08436910518F0C436D105DCF0809155067D
S113200090915606019790935606809355068091B9
S1132010550690915606992334F487EC90E09093FA
S113202056068093550680915206815083708093A2
S1132030520682B1E0915206807CF0E0E25DFD4FF1
S11320409081892B82B91F31D0F090910F0180913A
S11320500D01891760F013C090910F0180910E015A
S1132060891780F416BC80910F0187BD13C090912D
S11320700C0180910F01891B80930F01F3CF143160
S113208058F3F0CF90910C0180910F01890F809348
S11320900F01E8CFFF91EF91DF91CF91BF91AF9105
S11320A09F918F917F916F915F914F913F912F916C
S11320B01F910F900BBE0F900FBE0F901F9018959D
S11320C0E1E8F0E080818860808388EE93E090937B
S11320D08900809388000895AC01E1E8F0E09081E4
S11320E0926090831092850010928400B19A20E04F
S11320F030E02417350744F4B19902C0B19BFECFF8
S1132100B19A2F5F3F4FF5CFE1E8F0E08081887FFF
S113211080830895EE0FFF1F0024001C0BBE079060
S1132120F691E02D09940F931F93CF93DF93CDB7CE
S1132130DEB72E970FB6F894DEBF0FBECDBF0D8964
S11321401E8986E08C831A8309838FEF9FE79E8321
S11321508D83AE01475E5F4F6F89788DCE01019606
S113216010D0EF81F885E00FF11F10822E960FB684
S1132170F894DEBF0FBECDBFDF91CF911F910F91B9
S113218008952F923F924F925F926F927F928F9217
S11321909F92AF92BF92CF92DF92EF92FF920F93F2
S11321A01F93CF93DF93CDB7DEB72B970FB6F89479
S11321B0DEBF0FBECDBF6C017B018A01FC0117821B
S11321C01682838181FFBFC1CE0101963C01F601D5
S11321D09381F70193FD859193FF81917F0188237A
S11321E009F4ADC1853239F493FD859193FF819152
S11321F07F01853221F4B60190E0D6D1E8CF912C4D
S1132200212C312CFFE1F315D8F08B3279F038F41E
S1132210803279F08332A1F4232D20611DC08D32E8
S113222061F0803369F4232D216016C0832D826010
S1132230382EE32DE4603E2E2AC0F32DF8601DC035
S113224037FC2DC020ED280F2A3040F08E32B9F42F
S113225036FC75C1232D2064322E19C036FE06C00B
S11322608AE0989E200D1124922E11C0EAE02E9E41
S1132270200D1124222EF32DF0623F2E08C08C363F
S113228021F4832D8068382E02C0883641F4F7018A
S113229093FD859193FF81917F018111B3CF982F95
S11322A09F7D9554933028F40C5F1F4F9FE39983CF
S11322B00DC0833631F0833771F0833509F055C092
S11322C020C0F801808189830E5F1F4F8824839486
S11322D0912C530112C02801F2E04F0E511CF80159
S11322E0A080B18036FE03C0692D70E002C06FEF9C
S11322F07FEFC5014ED14C018201F32DFF773F2EB4
S113230015C0280122E0420E511CF801A080B180C2
S113231036FE03C0692D70E002C06FEF7FEFC50188
S11323202DD14C01F32DF0683F2E820133FC19C0EE
S1132330822D90E088169906A0F4B60180E290E020
S113234033D12A94F5CFF50137FC859137FE81917D
S11323505F01B60190E028D121102A9421E0821A6D
S113236091088114910479F7E1C0843611F089361B
S113237039F5F80137FE07C060817181828193814C
S11323800C5F1F4F08C060817181072E000C880B01
S1132390990B0E5F1F4FF32DFF763F2E97FF09C059
S11323A090958095709561957F4F8F4F9F4FF06802
S11323B03F2E2AE030E0A30133D1882E861844C092
S11323C0853731F4232D2F7EB22E2AE030E025C04C
S11323D0932D997FB92E8F36C1F018F4883579F092
S11323E0AEC0803719F0883721F0A9C0E92FE06129
S11323F0BE2EB4FE0DC0FB2DF460BF2E09C034FE0A
S11324000AC0292F2660B22E06C028E030E005C09D
S113241020E130E002C020E132E0F801B7FE07C05D
S113242060817181828193810C5F1F4F06C060813E
S1132430718180E090E00E5F1F4FA301F1D0882EE0
S11324408618FB2DFF773F2E36FE0DC0232D2E7FE1
S1132450A22E891458F434FE0BC032FC09C0832D1B
S11324608E7EA82E05C0B82CA32C03C0B82C01C0A6
S1132470B92CA4FE0FC0FE01E80DF11D808180334C
S113248021F49A2D997EA92E09C0A2FE06C0B39408
S1132490B39404C08A2D867809F0B394A3FC10C0C9
S11324A0A0FE06C0B21480F4280C922C9B180DC018
S11324B0B21458F4B60180E290E076D0B394F8CF29
S11324C0B21418F42B1802C0982C212CA4FE0FC0AF
S11324D0B60180E390E068D0A2FE16C0A1FC03C060
S11324E088E790E002C088E590E0B6010CC08A2D30
S11324F0867851F0A1FE02C08BE201C080E2A7FC05
S11325008DE2B60190E050D0891430F4B60180E336
S113251090E04AD09A94F8CF8A94F301E80DF11D23
S11325208081B60190E040D08110F6CF222009F4DA
S11325304ECEB60180E290E037D02A94F7CFF60170
S11325408681978102C08FEF9FEF2B960FB6F89488
S1132550DEBF0FBECDBFDF91CF911F910F91FF90D2
S1132560EF90DF90CF90BF90AF909F908F907F902F
S11325706F905F904F903F902F900895FC010590CD
S1132580615070400110D8F7809590958E0F9F1F71
S11325900895FC016150704001900110D8F78095B6
S11325A090958E0F9F1F08950F931F93CF93DF93E2
S11325B0FB01238121FD03C08FEF9FEF2CC022FF7D
S11325C016C046815781248135814217530744F44C
S11325D0A081B1819D012F5F3F4F318320838C9374
S11325E0268137812F5F3F4F3783268314C08B01A9
S11325F0EC01FB010084F185E02D0995892BE1F6BE
S1132600D80116968D919C911797019617969C93D5
S11326108E931697CE01DF91CF911F910F9108955C
S1132620FA01AA27283051F1203181F1E8946F93FF
S11326306E7F6E5F7F4F8F4F9F4FAF4FB1E03ED0A5
S1132640B4E03CD0670F781F891F9A1FA11D680F43
S1132650791F8A1F911DA11D6A0F711D811D911D76
S1132660A11D20D009F468943F912AE0269F1124EB
S11326703019305D3193DEF6CF010895462F47704F
S1132680405D4193B3E00FD0C9F7F6CF462F4F70AA
S1132690405D4A3318F0495D31FD4052419302D008
S11326A0A9F7EACFB4E0A6959795879577956795AE
S11326B0BA95C9F700976105710508959B01AC01AE
S11326C00A2E06945795479537952795BA95C9F7D5
S11326D0620F731F841F951FA01D0895F894FFCFE8
S11326E0FF03FF030F002C017003AC0308468C8C1E
S11326F0426C61636B005768697465005374656567
S11327006C00416C756D696E756D00423A00573A04
S113271000533A00413A0025690052756E6E696EA5
S1132720672E2E2E0052616D7044004974656D2031
S1132730536F72746572003E537461727400204367
S1132740616C696272617465002053746172740013
S11327503E43616C696272617465003E486F6D65E9
S11327602053746570002053746570706572002086
S11327704F70746963616C20530020486F6D65204D
S113278053746570003E53746570706572003E4FFB
S113279070746963616C20530051756575650066DA
S11327A0006200476F616C3A004375723A004465F9
S11327B06C61793A004F6E2042656C743A00545350
S11327C06F727465643A00423D00573D00533D000A
S11327D0413D003E4D61780020496E6300204D6903
S11327E06E00204D6178003E496E63003E4D696E77
S11327F00043757272656E743A004D61783A00490F
S11328006E637256616C7565004D696E3A003006F0
S1052810280595
S9030000FC
