S0160000736F7274696E6750726F6A6563742E7372656331
S1130000CAC20000F1C20000EFC200002DC400000B
S1130010D2C40000E9C20000E7C20000E5C200004B
S1130020E3C20000E1C20000DFC20000DDC2000044
S1130030DBC20000D9C20000D7C20000D5C2000054
S1130040D3C20000D1C20000CFC20000CDC2000064
S1130050CBC200000C94850EC7C20000C5C20000CC
S1130060C3C20000C1C20000BFC20000BDC2000084
S1130070BBC20000BBC30000B7C20000B5C2000091
S1130080B3C20000B1C20000AFC20000ADC20000A4
S1130090ABC20000A9C2000000000000003E5B4F9C
S11300A05B3E3E6B4F6B3E1C3E7C3E1C183C7E3CD4
S11300B0181C577D571C1C5E7F5E1C00183C1800E2
S11300C0FFE7C3E7FF0018241800FFE7DBE7FF3072
S11300D0483A060E2629792926407F050507407FE0
S11300E005253F5A3CE73C5A7F3E1C1C08081C1C53
S11300F03E7F14227F22145F5F005F5F06097F0149
S11301007F006689956A606060606094A2FFA29433
S113011008047E040810207E201008082A1C080801
S11301201C2A08081E101010100C1E0C1E0C30384F
S11301303E3830060E3E0E06000000000000005F50
S113014000000007000700147F147F14242A7F2A6C
S1130150122313086462364956205000080703002E
S1130160001C2241000041221C002A1C7F1C2A087A
S1130170083E0808008070300008080808080000DD
S113018060600020100804023E5149453E00427F51
S1130190400072494949462141494D331814127FA0
S11301A01027454545393C4A494931412111090740
S11301B03649494936464949291E000014000000C1
S11301C04034000000081422411414141414004193
S11301D022140802015909063E415D594E7C121150
S11301E0127C7F494949363E414141227F41414188
S11301F03E7F494949417F090909013E4141517303
S11302007F0808087F00417F41002040413F017F73
S1130210081422417F404040407F021C027F7F043B
S113022008107F3E4141413E7F090909063E415184
S1130230215E7F09192946264949493203017F0174
S1130240033F4040403F1F2040201F3F4038403F75
S1130250631408146303047804036159494D43008B
S11302607F4141410204081020004141417F0402C2
S11302700102044040404040000307080020545459
S113028078407F2844443838444444283844442837
S11302907F385454541800087E090218A4A49C788A
S11302A07F0804047800447D40002040403D007FE6
S11302B01028440000417F40007C047804787C08C6
S11302C00404783844444438FC182424181824249A
S11302D018FC7C08040408485454542404043F447F
S11302E0243C4040207C1C2040201C3C4030403CAE
S11302F044281028444C9090907C4464544C44000E
S11303000836410000007700000041360800020171
S11303100204023C2623263C1EA1A161123A40405D
S1130320207A3854545559215555794122545478DA
S113033042215554784020545579400C1E52721273
S113034039555555593954545459395554545800FC
S113035000457C410002457D420001457C407D1200
S113036011127DF0282528F07C5455450020545462
S11303707C547C0A097F4932494949323A4444440D
S11303803A324A4848303A4141217A3A4240207848
S1130390009DA0A07D3D4242423D3D4040403D3C49
S11303A024FF2424487E4943662B2FFC2F2BFF096E
S11303B029F620C0887E0903205454794100004462
S11303C07D413048484A32384040227A007A0A0A4D
S11303D0727D0D19317D2629292F282629292926C0
S11303E030484D4020380808080808080808382F05
S11303F010C8ACBA2F102834FA00007B000008148F
S11304002A142222142A1408AA005500AAAA55AABA
S113041055AA000000FF00101010FF00141414FF70
S1130420001010FF00FF1010F010F0141414FC0062
S11304301414F700FF0000FF00FF1414F404FC146C
S11304401417101F10101F101F1414141F00101065
S113045010F0000000001F101010101F10101010DA
S1130460F010000000FF101010101010101010FFFA
S113047010000000FF140000FF00FF00001F101711
S11304800000FC04F414141710171414F404F400FA
S113049000FF00F714141414141414F700F71414C0
S11304A014171410101F101F141414F4141010F047
S11304B010F000001F101F0000001F14000000FCBB
S11304C0140000F010F01010FF10FF141414FF14A7
S11304D01010101F00000000F010FFFFFFFFFFF0DE
S11304E0F0F0F0F0FFFFFF0000000000FFFF0F0F2F
S11304F00F0F0F3844443844FC4A4A4A347E0202FF
S11305000606027E027E0263554941633844443C38
S113051004407E201E2006027E020299A5E7A599CA
S11305201C2A492A1C4C7201724C304A4D4D303001
S113053048784830BC625A463D3E494949007E01EC
S113054001017E2A2A2A2A2A44445F444440514A0B
S1130550444040444A51400000FF0103E080FF0052
S11305600008086B6B083612362436060F090F068E
S1130570000018180000001010003040FF010100B6
S11305801F01011E00191D1712003C3C3C3C0000D9
S113059000000000F20811241FBECFEFD0E2DEBF3E
S11305A0CDBF12E0A0E0B1E0E2E0F6E200E00BBF74
S11305B002C007900D92A232B107D9F726E0A2E259
S11305C0B2E001C01D92A434B207E1F712E0CBEC13
S11305D0D2E004C02197FE010E941B10CA3CD1073F
S11305E0C9F7D9D40C94FF127EC210BAEAE7F0E03E
S11305F0808180688083808187608083ECE7F0E07D
S11306008081816480830895CF93DF93EC0180918E
S11306102A028830C0F520910201309103018091B3
S11306200001909101012817390740F480910201DB
S113063090910301909301018093000183E392E080
S11306401DD32EE431E040E050E060E070E083E34D
S113065092E0BDD39E0140E150E060E070E083E3AE
S113066092E0B5D320912A0230E040E250E060E00D
S113067070E083E392E0E1D383E392E010D38091CE
S11306802A02883040F210922A02DF91CF91089515
S113069083E392E0F3D22EE431E040E050E060E006
S11306A070E083E392E093D320E131E040E150E055
S11306B060E070E083E392E08AD320E030E040E23F
S11306C050E060E070E083E392E0B7D383E392E02C
S11306D0E6D278940E94FB0B80E191E095DF809153
S11306E0000190910101059790930B0180930A01F9
S11306F086E191E089DF80910001909101010597E5
S113070090930901809308018CE191E07DDF809151
S113071000019091010105979093070180930601D0
S113072082E291E071DF80910001909101010597CF
S113073090930501809304010E94000C83E392E0EE
S11307409DD22BE231E040E050E060E070E083E3D2
S113075092E03DD320910A0130910B0140E050E03A
S113076068E170E083E392E068D32EE231E040E197
S113077050E060E070E083E392E029D32091080127
S11307803091090140E150E068E170E083E392E0D8
S113079054D321E331E040E250E060E070E083E3D1
S11307A092E015D3209106013091070140E250E018
S11307B068E170E083E392E040D324E331E040E376
S11307C050E060E070E083E392E001D32091040103
S11307D03091050140E350E068E170E083E392E08A
S11307E02CD383E392E05BD2F89408951F920F9286
S11307F00FB60F9211240BB60F922F933F938F9342
S11308009F93EF93FF93209178003091790080912A
S11308100201909103012817390740F48091780070
S1130820909179009093030180930201EAE7F0E04C
S1130830808180648083FF91EF919F918F913F919C
S11308402F910F900BBE0F900FBE0F901F90189515
S11308508AB1837F8AB91DBAE9E6F0E080818069B4
S113086080838CE08DBB08951F920F920FB60F9278
S113087011240BB60F922F933F934F935F936F9373
S11308807F938F939F93AF93BF93EF93FF9385E0F1
S113089090E00E94FD0F4A9B0FC08FEF93E090936E
S11308A0030180930201EAE7F0E08081886080839D
S11308B08081806480836AC04A9968C0EAE7F0E076
S11308C08081877F808380818F7B80832091020158
S11308D03091030180910A0190910B0182179307D3
S11308E018F1209102013091030180910801909147
S11308F0090182179307D0F020910201309103017E
S113090080910601909107018217930788F0209146
S11309100201309103018091040190910501821735
S1130920930740F094E007C090E005C091E003C055
S113093092E001C093E080912A02883018F08FEF92
S113094088B924C080912A0281110FC080912A02A3
S11309508F5F80932A02E0912802F0E0E55DFD4F6D
S1130960908381E08093270211C080912A028F5FD7
S113097080932A02809128028F5F877080932802D7
S1130980E0912802F0E0E55DFD4F908384E08CBBAC
S1130990FF91EF91BF91AF919F918F917F916F9153
S11309A05F914F913F912F910F900BBE0F900FBE0F
S11309B00F901F9018951F920F920FB60F9211244B
S11309C00BB60F922F933F934F935F936F937F9345
S11309D08F939F93AF93BF93EF93FF9385E090E042
S11309E00E94FD0F4B996AC080913E06882309F44A
S11309F05FC0E0912902F0E0E55DFD4F8081811147
S1130A0006C0809126028F5F8093260229C0E09160
S1130A102902F0E0E55DFD4F8081813031F4809161
S1130A2025028F5F809325021BC0E0912902F0E02C
S1130A30E55DFD4F8081823031F4809124028F5F27
S1130A40809324020DC0E0912902F0E0E55DFD4FA2
S1130A508081833029F4809123028F5F8093230265
S1130A6080912A02823018F410922A0227C08091C1
S1130A7029028F5F8770E0912902F0E0E55DFD4F68
S1130A802081E82FF0E0E55DFD4F9081291729F0E2
S1130A9091E090933D0610923E0680932902809146
S1130AA02A02815080932A0281E08093270206C0A3
S1130AB082B18F7382B981E08093220288E08CBB7B
S1130AC0FF91EF91BF91AF919F918F917F916F9122
S1130AD05F914F913F912F910F900BBE0F900FBEDE
S1130AE00F901F9018951F920F920FB60F9211241A
S1130AF08F938AEA88B98F910F900FBE0F901F9041
S1130B0018956623D4F04034C0F4242F26952695F6
S1130B10269570E030E8239F600D711D1124FC01BF
S1130B20E60FF71F477081E090E002C0880F991F1D
S1130B304A95E2F79081892B80830895FF920F9361
S1130B401F93CF93DF93222361F0C42FF62E8C01E1
S1130B50D22FD40F4C2F6F2DC801D3DFCF5FCD130D
S1130B60F9CFDF91CF911F910F91FF900895FF92DC
S1130B700F931F93CF93DF93222361F0F42EC62F9C
S1130B808C01D22FD60F4F2D6C2FC801BADFCF5F47
S1130B90CD13F9CFDF91CF911F910F91FF9008955D
S1130BA0CF92DF92EF92FF920F931F93CF93DF9335
S1130BB0EC01F62E142FD22EE22EE61AE394C02E68
S1130BC0C41A2E2DD4DF2E2D402F6F2DCE01CFDF52
S1130BD02C2D412F6F2DCE01B1DF2C2D412F6D2DEA
S1130BE0CE01ACDFDF91CF911F910F91FF90EF9079
S1130BF0DF90CF9008956F927F928F929F92AF92E1
S1130C00BF92CF92DF92EF92FF920F931F93CF93F5
S1130C10DF936C01642EE11002C0C2DF20C0041B0C
S1130C202F5F261B822E912C18141904C4F4762EDF
S1130C30A12CB12CE02EF12C162DC0E0D0E0412FD8
S1130C40672DC6015EDF21961F5FEC16FD06BCF71B
S1130C508FEFA81AB80A7394A814B90469F7DF913E
S1130C60CF911F910F91FF90EF90DF90CF90BF90A5
S1130C70AF909F908F907F906F900895FC019C5F40
S1130C801192E817F907E1F70895CF93DF93EC0188
S1130C909C5FCCD5CE01F2DFDF91CF910895BC01EA
S1130CA09C5F19C608952F923F924F925F926F9264
S1130CB07F928F929F92AF92BF92CF92DF92EF92E8
S1130CC0FF920F931F93CF93DF9300D000D01F9216
S1130CD0CDB7DEB75C014B8348013701CD826A830F
S1130CE02C2C260E30E06901CC0CDD1CCC0CDD1C58
S1130CF02C0D3D1DC90188569F4F6C01362E19825B
S1130D00442E98E0490EE981E53009F441C0F6012A
S1130D1014913FC010FF11C0FD81F13029F44C81C2
S1130D206A81C501EEDE1CC0EE24E3940F2D222D52
S1130D30452D632DC5015FDF13C06814790481F06C
S1130D408D81813029F44C816A81C501DADE08C0C5
S1130D50EE24E3940F2D222D452D632DC5014BDF89
S1130D6016959D81590EF90EEC81EF5FEC83E41129
S1130D70D1CFF981FF5FF983390E290E8A818F5F04
S1130D808A839FEFC91AD90AF63009F0BCCF07C08D
S1130D9010E05B80F52CED81FE0E5C82BBCF0F90E2
S1130DA00F900F900F900F90DF91CF911F910F91A3
S1130DB0FF90EF90DF90CF90BF90AF909F908F9077
S1130DC07F906F905F904F903F902F9008956F9217
S1130DD07F928F929F92AF92BF92CF92EF92FF92A7
S1130DE00F931F93CF93F901C62F20812223C1F0C3
S1130DF05F013A014C018FEFA81AB80A6C2F70E01A
S1130E006894CC24C1F8E12CF12C00E010E0A3019B
S1130E10C40149DFC45FF50121915F012111EECFC7
S1130E20CF911F910F91FF90EF90CF90BF90AF9013
S1130E309F908F907F906F9008958F929F92AF9222
S1130E40BF92CF92DF92EF92FF920F931F93CF93B3
S1130E50DF93CDB7DEB76C015B014A01EDB6FEB698
S1130E602A3031054CF02436310544F0283E43E065
S1130E70340734F087E005C082E003C083E001C09A
S1130E8084E04DB75EB7481B51090FB6F8945EBFB6
S1130E900FBE4DBF0DB71EB70F5F1F4F3F932F936C
S1130EA087E391E09F938F931F930F930E942410E5
S1130EB0202F312FA401B501C60189DF0F900F90B7
S1130EC00F900F900F900F900FB6F894FEBE0FBEC8
S1130ED0EDBEDF91CF911F910F91FF90EF90DF90C6
S1130EE0CF90BF90AF909F908F9008950895FC018C
S1130EF060831092B90080E28093B8000895DC0109
S1130F0084EA8093BC00ECEBF0E090819923ECF749
S1130F109091B900987F11969C931197983011F095
S1130F209031B9F48C918093BB0084E88093BC0029
S1130F30ECEBF0E090819923ECF79091B900987F65
S1130F4011969C93983139F081E0903429F480E033
S1130F50089581E0089580E00895DC016093BB006A
S1130F6084E88093BC00ECEBF0E090819923ECF7EB
S1130F709091B900987F11969C9381E0983209F47E
S1130F8080E0089584E98093BC00ECEBF0E080817C
S1130F9084FDFDCF0895F894E1E6F0E080E88083D5
S1130FA010828DB18E708DB987B18FEF87B984B1FE
S1130FB08F7184B985B1806E85B98DB18F7C8DB9FF
S1130FC08EB180638EB911DBF8D30E94F10F40DC3F
S1130FD0F4D3C7D415D480EC09D453D501E0D0E0C0
S1130FE06894BB24B1F8C02EDD2E0F2EF3E0EF2E53
S1130FF0F02D14E0FB2CAB2CF9D0CD2F659902C059
S113100024D1CC2D1F9902C0F1D0CD2D1D99F6CF3E
S113101084E190E0F2D71D9BFECF84E190E0EDD710
S1131020C13079F00F2EF4E6CF2EF02DD12CC2E38F
S1131030D0E00F2EF6E9EF2EF12CF02D0C2D1D2D06
S11310405EC032D1CF2D6599B7C0C43009F0B4C0A9
S1131050B0C0C23009F0B2C0B4C0659BFECF84E119
S113106090E0CBD743D1C12FEECFC33009F0ADC050
S1131070AFC01F9BFECF84E190E0BFD737D1C12F13
S1131080E2CFC43009F0A8C0AAC01D99DCCF84E126
S113109090E0B3D71D9BFECF84E190E0AED7C33080
S11310A0D1F4F6DA80E090E0FC01E55DFD4F1082BA
S11310B0019688309105C1F7D0932902D093280274
S11310C01D99FECF84E190E098D71D9BFECF84E16B
S11310D090E093D7B6CFC23011F4D3D48BCFC430C1
S11310E009F0B1CF08B9E0D4ACCF1E9B08C01F995A
S11310F002C040D1FACF6599F8CF24D2F6CF7BD382
S11311003AD4789437D180912702882309F446C0D1
S1131110F89480913D06882359F080913D068230F1
S113112019F4C8016AD702C0CE0167D710923D06F0
S1131130E0912902F0E0E55DFD4F8081811105C059
S1131140109241061092400626C0E0912902F0E078
S1131150E55DFD4F8081813029F4109341060093B1
S1131160400619C0E0912902F0E0E55DFD4F808161
S1131170823029F4F0924106E09240060CC0E091DE
S11311802902F0E0E55DFD4F8081833021F4D093A6
S11311904106C09340061092270278946499B2CF16
S11311A082B18F7382B98C2D9D2D27D7F894CAD123
S11311B09CCFBED0CE2D47CF659B4BCF1F9B55CF29
S11311C004C084E190E019D748CF1F9B5ACF04C0D4
S11311D084E190E012D74DCF1E9957CF0DCF64D044
S11311E0CA2D31CF83E392E050CD0895EF920F934F
S11311F083E392E043DD2AE331E040E050E060E045
S113120070E083E392E0E3DDEE24E39401E12FE771
S113121040E160E083E392E0EEDC26E431E044E187
S113122050E060E070E083E392E0D1DD2DE431E052
S113123044E250E060E070E083E392E0C8DD83E3E1
S113124092E02DDD0F91EF900895EF920F9383E3D9
S113125092E014DD2AE331E040E050E060E070E029
S113126083E392E0B4DDEE24E39401E12FE740E16F
S113127060E083E392E0BFDC28E531E044E150E044
S113128060E070E083E392E0A2DD2FE531E044E228
S113129050E060E070E083E392E099DD83E392E064
S11312A0FEDC0F91EF90089583E392E0E7DC2AE6F9
S11312B031E040E050E060E070E083E392E087DDFD
S11312C025E731E040E150E060E070E083E392E044
S11312D07EDD2EE731E040E250E060E070E083E341
S11312E092E075DD83E392E0DACC089583E392E043
S11312F0C5DC29E831E040E050E060E070E083E3E1
S113130092E065DD24E931E040E150E060E070E026
S113131083E392E05CDD2EE731E040E250E060E000
S113132070E083E392E053DD83E392E0B8CC089568
S113133083E392E0A3DC29E831E040E050E060E0A0
S113134070E083E392E043DD25E731E040E150E0E3
S113135060E070E083E392E03ADD2DE931E040E2C1
S113136050E060E070E083E392E031DD83E392E0FB
S113137096CC0895EF920F93CF93DF9383E392E09B
S11313807DDC28EA31E040E050E060E070E083E397
S113139092E01DDD209102013091030140E050E014
S11313A068E470E083E392E048DDEE24E39401E135
S11313B02FE740E160E083E392E01DDCCBE2D2E082
S11313C0288130E044E150E060E070E083E392E0A3
S11313D034DD298130E044E150E06CE070E083E3E7
S11313E092E02BDD2A8130E044E150E068E170E0D6
S11313F083E392E022DD2B8130E044E150E064E2BB
S113140070E083E392E019DD2C8130E044E150E0A8
S113141060E370E083E392E010DD2D8130E044E18D
S113142050E06CE370E083E392E007DD2E8130E06E
S113143044E150E068E470E083E392E0FEDC2F8155
S113144030E044E150E064E570E083E392E0F5DCF1
S113145020912A0230E044E150E06CE670E083E33E
S113146092E0EBDC6091290270E0CB01880F991FB8
S1131470680F791F660F771F660F771F2EEA31E01A
S113148044E250E083E392E0A2DC6091280270E041
S1131490CB01880F991F680F791F660F771F660F9E
S11314A0771F20EB31E044E250E083E392E08FDCED
S11314B083E392E0F4DBDF91CF910F91EF900895F5
S11314C083E392E0DBDB22EB31E040E050E060E0DC
S11314D070E083E392E07BDC20914006309141068A
S11314E040E050E06CE370E083E392E0A6DC28EB9C
S11314F031E040E150E060E070E083E392E067DCDB
S1131500209140063091410640E150E06CE370E0E8
S113151083E392E092DC2DEB31E040E250E060E0C6
S113152070E083E392E053DC20910F0130E040E26D
S113153050E068E470E083E392E07FDC83E392E0D0
S1131540AECB089583E392E099DB24EC31E040E0F4
S113155050E060E070E083E392E039DC20912A02FD
S113156030E040E050E060E670E083E392E065DC68
S11315702DEC31E040E150E060E070E083E392E084
S113158026DC50912A022091260240912502909156
S113159024028091230230E0250F311D240F311DD8
S11315A0290F311D280F311D40E150E060E670E045
S11315B083E392E042DC26ED31E040E250E060E07B
S11315C070E083E392E003DC2091260230E040E205
S11315D050E068E170E083E392E02FDC29ED31E034
S11315E040E250E06CE370E083E392E0F0DB2091B2
S11315F0250230E040E250E064E570E083E392E0ED
S11316001CDC2CED31E040E350E060E070E083E36B
S113161092E0DDDB2091240230E040E350E068E119
S113162070E083E392E009DC2FED31E040E350E029
S11316306CE370E083E392E0CADB2091230230E0A4
S113164040E350E064E570E083E392E0F6DB83E39B
S113165092E025CB08950F931F93CF93C82F8B014E
S113166083E392E00BDB980140E050E060E070E03F
S113167083E392E0ACDB2C2F30E040E150E060E00B
S113168070E083E392E0D9DB83E392E008DBCF915F
S11316901F910F910895CF93C82F83E392E0EEDA60
S11316A0C1111CC022EE31E040E050E060E070E087
S11316B083E392E08CDB27EE31E040E150E060E030
S11316C070E083E392E083DB2CEE31E040E250E013
S11316D060E070E083E392E07ADB3BC0C130E1F488
S11316E021EF31E040E050E060E070E083E392E01D
S11316F06EDB26EF31E040E150E060E070E083E330
S113170092E065DB2CEE31E040E250E060E070E016
S113171083E392E05CDB1DC0C230D9F421EF31E0F9
S113172040E050E060E070E083E392E050DB27EEBD
S113173031E040E150E060E070E083E392E047DBB9
S11317402BEF31E040E250E060E070E083E392E0B0
S11317503EDB83E392E0A3DACF91089583E392E042
S11317608DDA20E032E040E050E060E070E083E3B6
S113177092E02DDB209142063091430640E150E097
S113178060E070E083E392E058DB22EB31E040E27A
S113179050E060E070E083E392E019DB20914006C2
S11317A03091410640E350E060E070E083E392E072
S11317B044DB83E392E073CA089584B1816184B900
S11317C081B1806C81B9209AE0EBF0E08081836084
S11317D08083808180688083E1EBF0E08081826097
S11317E0808380E88093B300289808951092B20013
S11317F08093B300089582B18F73806482B9089591
S113180082B18F7382B908951F93CF93DF93EC0154
S1131810162F75DB60E0CE01A0DB612FCE019DDBCE
S1131820CE01B0DBDF91CF911F910895CF93DF9369
S1131830EC015CDB68E7CE015ADB6EEACE01E4DF43
S113184065EDCE01E1DF60E8CE01DEDF68EACE01BE
S1131850DBDF6FE3CE01D8DF63EDCE01D5DF60E0DF
S1131860CE01D2DF60E4CE01CFDF6DE8CE01CCDF64
S113187064E1CE01C9DF60E2CE01C6DF60E0CE01E3
S1131880C3DF61EACE01C0DF68ECCE01BDDF6AEDE3
S1131890CE01BADF62E1CE01B7DF61E8CE01B4DF89
S11318A06FECCE01B1DF69EDCE01AEDF61EFCE01A9
S11318B0ABDF6BEDCE01A8DF60E4CE01A5DF64EA07
S11318C0CE01A2DF66EACE019FDF6FEACE019CDF84
S11318D0DF91CF910895CF92DF92EF92FF920F9311
S11318E01F93CF93DF93082F192F7B0161E28CDFC5
S11318F060E0802F912F88DF6FE7802F912F84DFA6
S113190062E2802F912F80DF60E0802F912F7CDFB7
S113191067E0802F912F78DFE7018CEFF81A802F92
S1131920912FEDDA60E4802F912F17DB6E0180E1B7
S1131930C80ED11C6991802F912F0FDBCC15DD05CA
S1131940C9F7802F912F1EDBE601EC14FD0439F753
S1131950DF91CF911F910F91FF90EF90DF90CF9087
S1131960089581B18F6381B984B5826084BD86E9AD
S113197087BD16BC0895EEE6F0E080818260808326
S1131980A99A85B5856085BD0895BF92CF92DF92EF
S1131990EF92FF920F931F93CF93DF9318161906BC
S11319A00CF065C08B01EC01C12CD12C0F2EF2E19F
S11319B0BF2EF02D0F2EF7ECEF2EF12CF02D01158C
S11319C01105D9F0809142069091430601969093B7
S11319D043068093420680913F068F5F8370809315
S11319E03F068091420690914306883C9105FCF0A5
S11319F010924306109242061AC0809142069091BA
S1131A004306892B29F4F0924306E092420609C06A
S1131A1080914206909143060197909343068093E8
S1131A20420680913F068150837080933F0682B1C5
S1131A30E0913F06807CF0E0E35EFD4F9081892BCE
S1131A4082B98AE0C816D10414F4BA9406C0CE014F
S1131A508C199D0944970CF4B3948B2D90E0CDD24E
S1131A608FEFC81AD80ACC15DD0509F0A8CFDF918D
S1131A70CF911F910F91FF90EF90DF90CF90BF9087
S1131A80089561E070E089E190E07FDF669B07C024
S1131A9061E070E081E090E078DF6699F9CF109220
S1131AA043061092420608950F2EF6E9CF2ED12C4C
S1131AB0F02D0F2EFCE7EF2EF12CF02DCAE7D0E02D
S1131AC00F2EF9E7AF2EB12CF02D0F2EFDE02F2EA7
S1131AD0F1E03F2EF02D0F2EFEE04F2EF2E05F2EB0
S1131AE0F02D0F2EFCE06F2EF1E07F2EF02D0F2E47
S1131AF0F9E08F2EF2E09F2EF02D80E0CCDD10E097
S1131B001F990DC084E190E078D21F9BFECF84E141
S1131B1090E073D2112309F442C0115040C065997A
S1131B200DC084E190E069D2659BFECF84E190E032
S1131B3064D21F5F133098F112E031C01D992DC09B
S1131B4084E190E05AD21D9BFECF84E190E055D20F
S1131B5011110BC090923706809236068EE091E008
S1131B6090933C0680933B061DC0113049F450927B
S1131B7037064092360670923C0660923B0612C0CD
S1131B80123081F468E172E0709337066093360690
S1131B9030923C0620923B0605C0649B6DC0812FA9
S1131BA07ADDAECFF70180818C7F82608083808173
S1131BB0806280838881877F8883E0913B06F091EF
S1131BC03C068081609136067091370644DD888139
S1131BD080648883888186FDFDCF809138068830B3
S1131BE0D0F4F50190812091390630913A06A9018B
S1131BF0490F511D36952795369527953695279586
S1131C00BA01621B730B70933A06609339068F5FB7
S1131C10809338061BC0E0913B06F0913C0680910E
S1131C20390690913A069695879596958795969557
S1131C3087958083E0913B06F0913C06808160911A
S1131C4036067091370607DD109238061E99BFCF0D
S1131C5084E190E0D2D11E9BFECF84E190E0CDD10F
S1131C60F70180818C7F8160808380818F7D808378
S1131C7088818860888341CF71DD03DF7CDE109228
S1131C80410610924006789465991BC084E190E067
S1131C90B4D1659BFECF84E190E0AFD18091400642
S1131CA090914106C297909341068093400680919B
S1131CB0400690914106992324F4D0924106C092A3
S1131CC040061F991CC084E190E097D11F9BFECF72
S1131CD084E190E092D18091400690914106C296B1
S1131CE0909341068093400680914006909141066E
S1131CF0883C910524F010924106109240061E99EA
S1131D0002C0F894FACEDCDBBFCF1F920F920FB65D
S1131D100F9211240BB60F922F933F934F935F931F
S1131D208F939F93EF93FF93809140069091410688
S1131D302091420630914306821B930B9C0122F4AE
S1131D4022273327281B390B422F253610F048EC65
S1131D50421B4F3008F0B9C020913506222309F404
S1131D6045C010923E0618B84111B2C022E020933B
S1131D703D0610923506E0912902F0E0E55DFD4F45
S1131D802081211105C01092410610924006A0C086
S1131D90E0912902F0E0E55DFD4F2081213039F426
S1131DA024E630E0309341062093400691C0E09150
S1131DB02902F0E0E55DFD4F2081223039F426E967
S1131DC030E0309341062093400682C0E09129021E
S1131DD0F0E0E55DFD4F2081233009F079C022E376
S1131DE030E0309341062093400672C020912202D5
S1131DF0222309F464C010923E062FE028B922B1D0
S1131E002F73206422B910922202E0912902F0E09B
S1131E10E55DFD4F2081211106C0209126022F5F30
S1131E202093260229C0E0912902F0E0E55DFD4FF0
S1131E302081213031F4209125022F5F2093250247
S1131E401BC0E0912902F0E0E55DFD4F20812230C6
S1131E5031F4209124022F5F209324020DC0E091DD
S1131E602902F0E0E55DFD4F2081233029F4209123
S1131E7023022F5F2093230220912A02223018F498
S1131E8010922A0225C0209129022F5F2770E09129
S1131E902902F0E0E55DFD4F5081E22FF0E0E55DC1
S1131EA0FD4F3081531719F031E0309335062093FC
S1131EB0290220912A02215020932A0209C021E0FC
S1131EC020933E062FE028B903C010923E0618B8AE
S1131ED09C01215031092336310520F08C392FEF34
S1131EE09207DCF480914206909143060196909308
S1131EF04306809342068091420690914306883CB3
S1131F00910524F0109243061092420680913F06F8
S1131F108F5F837080933F0624C09C012C593F4FF0
S1131F202436310518F084369105DCF080914206A0
S1131F3090914306019790934306809342068091C3
S1131F40420690914306992334F487EC90E09093F1
S1131F5043068093420680913F06815083708093AC
S1131F603F0682B1E0913F06807CF0E0E35EFD4FE6
S1131F709081892B82B94F31D0F090910F018091DB
S1131F800D01891760F013C090910F0180910E012B
S1131F90891780F416BC80910F0187BD13C09091FE
S1131FA00C0180910F01891B80930F01F3CF443101
S1131FB058F3F0CF90910C0180910F01890F809319
S1131FC00F01E8CFFF91EF919F918F915F914F9116
S1131FD03F912F910F900BBE0F900FBE0F901F904B
S1131FE01895E1E8F0E080818860808388EE93E0D2
S1131FF090938900809388000895AC01E1E8F0E0B3
S11320009081926090831092850010928400B19A1E
S113201020E030E02417350744F4B19902C0B19BA5
S1132020FECFB19A2F5F3F4FF5CFE1E8F0E080811A
S1132030887F80830895EE0FFF1F0024001C0BBED1
S11320400790F691E02D09940F931F93CF93DF939C
S1132050CDB7DEB72E970FB6F894DEBF0FBECDBF57
S11320600D891E8986E08C831A8309838FEF9FE78D
S11320709E838D83AE01475E5F4F6F89788DCE015D
S1132080019610D0EF81F885E00FF11F10822E9693
S11320900FB6F894DEBF0FBECDBFDF91CF911F9175
S11320A00F9108952F923F924F925F926F927F9279
S11320B08F929F92AF92BF92CF92DF92EF92FF9254
S11320C00F931F93CF93DF93CDB7DEB72B970FB644
S11320D0F894DEBF0FBECDBF6C017B018A01FC0109
S11320E017821682838181FFBFC1CE0101963C0114
S11320F0F6019381F70193FD859193FF81917F010F
S1132100882309F4ADC1853239F493FD859193FF99
S113211081917F01853221F4B60190E0D6D1E8CFD8
S1132120912C212C312CFFE1F315D8F08B3279F06E
S113213038F4803279F08332A1F4232D20611DC05C
S11321408D3261F0803369F4232D216016C0832D14
S11321508260382EE32DE4603E2E2AC0F32DF86011
S11321601DC037FC2DC020ED280F2A3040F08E32E0
S1132170B9F436FC75C1232D2064322E19C036FE05
S113218006C08AE0989E200D1124922E11C0EAE028
S11321902E9E200D1124222EF32DF0623F2E08C016
S11321A08C3621F4832D8068382E02C0883641F4A1
S11321B0F70193FD859193FF81917F018111B3CF45
S11321C0982F9F7D9554933028F40C5F1F4F9FE305
S11321D099830DC0833631F0833771F0833509F06C
S11321E055C020C0F801808189830E5F1F4F882469
S11321F08394912C530112C02801F2E04F0E511C1C
S1132200F801A080B18036FE03C0692D70E002C0E1
S11322106FEF7FEFC5014ED14C018201F32DFF77A3
S11322203F2E15C0280122E0420E511CF801A08067
S1132230B18036FE03C0692D70E002C06FEF7FEFFE
S1132240C5012DD14C01F32DF0683F2E820133FCE2
S113225019C0822D90E088169906A0F4B60180E298
S113226090E033D12A94F5CFF50137FC859137FE00
S113227081915F01B60190E028D121102A9421E0D8
S1132280821A91088114910479F7E1C0843611F01F
S1132290893639F5F80137FE07C060817181828182
S11322A093810C5F1F4F08C060817181072E000C61
S11322B0880B990B0E5F1F4FF32DFF763F2E97FF70
S11322C009C090958095709561957F4F8F4F9F4F72
S11322D0F0683F2E2AE030E0A30133D1882E86181F
S11322E044C0853731F4232D2F7EB22E2AE030E00E
S11322F025C0932D997FB92E8F36C1F018F48835F7
S113230079F0AEC0803719F0883721F0A9C0E92FE1
S1132310E061BE2EB4FE0DC0FB2DF460BF2E09C0DB
S113232034FE0AC0292F2660B22E06C028E030E011
S113233005C020E130E002C020E132E0F801B7FE40
S113234007C060817181828193810C5F1F4F06C039
S11323506081718180E090E00E5F1F4FA301F1D096
S1132360882E8618FB2DFF773F2E36FE0DC0232DB9
S11323702E7FA22E891458F434FE0BC032FC09C0FF
S1132380832D8E7EA82E05C0B82CA32C03C0B82C98
S113239001C0B92CA4FE0FC0FE01E80DF11D80811F
S11323A0803321F49A2D997EA92E09C0A2FE06C07D
S11323B0B394B39404C08A2D867809F0B394A3FC33
S11323C010C0A0FE06C0B21480F4280C922C9B18F6
S11323D00DC0B21458F4B60180E290E076D0B39404
S11323E0F8CFB21418F42B1802C0982C212CA4FE98
S11323F00FC0B60180E390E068D0A2FE16C0A1FC35
S113240003C088E790E002C088E590E0B6010CC004
S11324108A2D867851F0A1FE02C08BE201C080E2D1
S1132420A7FC8DE2B60190E050D0891430F4B601D7
S113243080E390E04AD09A94F8CF8A94F301E80DAF
S1132440F11D8081B60190E040D08110F6CF2220AA
S113245009F44ECEB60180E290E037D02A94F7CF4B
S1132460F6018681978102C08FEF9FEF2B960FB6FE
S1132470F894DEBF0FBECDBFDF91CF911F910F91B6
S1132480FF90EF90DF90CF90BF90AF909F908F9090
S11324907F906F905F904F903F902F900895FC0134
S11324A00590615070400110D8F7809590958E0F7B
S11324B09F1F0895FC016150704001900110D8F7EE
S11324C0809590958E0F9F1F08950F931F93CF9320
S11324D0DF93FB01238121FD03C08FEF9FEF2CC00D
S11324E022FF16C046815781248135814217530744
S11324F044F4A081B1819D012F5F3F4F318320833C
S11325008C93268137812F5F3F4F3783268314C0F6
S11325108B01EC01FB010084F185E02D0995892BE9
S1132520E1F6D80116968D919C911797019617960E
S11325309C938E931697CE01DF91CF911F910F91AB
S11325400895FA01AA27283051F1203181F1E89445
S11325506F936E7F6E5F7F4F8F4F9F4FAF4FB1E092
S11325603ED0B4E03CD0670F781F891F9A1FA11D8D
S1132570680F791F8A1F911DA11D6A0F711D811D8E
S1132580911DA11D20D009F468943F912AE0269F53
S113259011243019305D3193DEF6CF010895462FB2
S11325A04770405D4193B3E00FD0C9F7F6CF462F93
S11325B04F70405D4A3318F0495D31FD40524193FC
S11325C002D0A9F7EACFB4E0A695979587957795B9
S11325D06795BA95C9F700976105710508959B0140
S11325E0AC010A2E06945795479537952795BA95C9
S11325F0C9F7620F731F841F951FA01D0895F894D7
S1052600FFCF06
S1132602FF03FF030F00BE0020039803083C9696C5
S1132612426C61636B005768697465005374656545
S11326226C00416C756D696E756D00423A00573AE3
S113263200533A00413A002569004974656D2053FC
S11326426F72746572003E53746172740020436148
S11326526C69627261746500205374617274003E25
S113266243616C696272617465003E486F6D6520F6
S11326725374657000205374657070657200204F46
S113268270746963616C20530020486F6D65205338
S1132692746570003E53746570706572003E4F70CD
S11326A2746963616C205300517565756500660039
S11326B26200476F616C3A004375723A0044656C7C
S11326C261793A004F6E2042656C743A0054536F3C
S11326D2727465643A00423D00573D00533D004127
S11326E23D003E4D61780020496E6300204D696EC5
S11326F200204D6178003E496E63003E4D696E00D4
S113270243757272656E743A004D61783A00496E8F
S1132712637256616C7565004D696E3A0030062825
S10527220500AC
S9030000FC
