S0160000736F7274696E6750726F6A6563742E7372656331
S1130000CAC20000F1C20000EFC200002CC400000C
S1130010D5C40000E9C20000E7C20000E5C2000048
S1130020E3C20000E1C20000DFC20000DDC2000044
S1130030DBC20000D9C20000D7C20000D5C2000054
S1130040D3C20000D1C20000CFC20000CDC2000064
S1130050CBC200000C94050CC7C20000C5C200004E
S1130060C3C20000C1C20000BFC20000BDC2000084
S1130070BBC20000B9C30000B7C20000B5C2000093
S1130080B3C20000B1C20000AFC20000ADC20000A4
S1130090ABC20000A9C2000000000000003E5B4F9C
S11300A05B3E3E6B4F6B3E1C3E7C3E1C183C7E3CD4
S11300B0181C577D571C1C5E7F5E1C00183C1800E2
S11300C0FFE7C3E7FF0018241800FFE7DBE7FF3072
S11300D0483A060E2629792926407F050507407FE0
S11300E005253F5A3CE73C5A7F3E1C1C08081C1C53
S11300F03E7F14227F22145F5F005F5F06097F0149
S11301007F006689956A606060606094A2FFA29433
S113011008047E040810207E201008082A1C080801
S11301201C2A08081E101010100C1E0C1E0C30384F
S11301303E3830060E3E0E06000000000000005F50
S113014000000007000700147F147F14242A7F2A6C
S1130150122313086462364956205000080703002E
S1130160001C2241000041221C002A1C7F1C2A087A
S1130170083E0808008070300008080808080000DD
S113018060600020100804023E5149453E00427F51
S1130190400072494949462141494D331814127FA0
S11301A01027454545393C4A494931412111090740
S11301B03649494936464949291E000014000000C1
S11301C04034000000081422411414141414004193
S11301D022140802015909063E415D594E7C121150
S11301E0127C7F494949363E414141227F41414188
S11301F03E7F494949417F090909013E4141517303
S11302007F0808087F00417F41002040413F017F73
S1130210081422417F404040407F021C027F7F043B
S113022008107F3E4141413E7F090909063E415184
S1130230215E7F09192946264949493203017F0174
S1130240033F4040403F1F2040201F3F4038403F75
S1130250631408146303047804036159494D43008B
S11302607F4141410204081020004141417F0402C2
S11302700102044040404040000307080020545459
S113028078407F2844443838444444283844442837
S11302907F385454541800087E090218A4A49C788A
S11302A07F0804047800447D40002040403D007FE6
S11302B01028440000417F40007C047804787C08C6
S11302C00404783844444438FC182424181824249A
S11302D018FC7C08040408485454542404043F447F
S11302E0243C4040207C1C2040201C3C4030403CAE
S11302F044281028444C9090907C4464544C44000E
S11303000836410000007700000041360800020171
S11303100204023C2623263C1EA1A161123A40405D
S1130320207A3854545559215555794122545478DA
S113033042215554784020545579400C1E52721273
S113034039555555593954545459395554545800FC
S113035000457C410002457D420001457C407D1200
S113036011127DF0282528F07C5455450020545462
S11303707C547C0A097F4932494949323A4444440D
S11303803A324A4848303A4141217A3A4240207848
S1130390009DA0A07D3D4242423D3D4040403D3C49
S11303A024FF2424487E4943662B2FFC2F2BFF096E
S11303B029F620C0887E0903205454794100004462
S11303C07D413048484A32384040227A007A0A0A4D
S11303D0727D0D19317D2629292F282629292926C0
S11303E030484D4020380808080808080808382F05
S11303F010C8ACBA2F102834FA00007B000008148F
S11304002A142222142A1408AA005500AAAA55AABA
S113041055AA000000FF00101010FF00141414FF70
S1130420001010FF00FF1010F010F0141414FC0062
S11304301414F700FF0000FF00FF1414F404FC146C
S11304401417101F10101F101F1414141F00101065
S113045010F0000000001F101010101F10101010DA
S1130460F010000000FF101010101010101010FFFA
S113047010000000FF140000FF00FF00001F101711
S11304800000FC04F414141710171414F404F400FA
S113049000FF00F714141414141414F700F71414C0
S11304A014171410101F101F141414F4141010F047
S11304B010F000001F101F0000001F14000000FCBB
S11304C0140000F010F01010FF10FF141414FF14A7
S11304D01010101F00000000F010FFFFFFFFFFF0DE
S11304E0F0F0F0F0FFFFFF0000000000FFFF0F0F2F
S11304F00F0F0F3844443844FC4A4A4A347E0202FF
S11305000606027E027E0263554941633844443C38
S113051004407E201E2006027E020299A5E7A599CA
S11305201C2A492A1C4C7201724C304A4D4D303001
S113053048784830BC625A463D3E494949007E01EC
S113054001017E2A2A2A2A2A44445F444440514A0B
S1130550444040444A51400000FF0103E080FF0052
S11305600008086B6B083612362436060F090F068E
S1130570000018180000001010003040FF010100B6
S11305801F01011E00191D1712003C3C3C3C0000D9
S113059000000000B90811241FBECFEFD0E2DEBF77
S11305A0CDBF11E0A0E0B1E0E2E0F0E200E00BBF7B
S11305B002C007900D92A43CB107D9F725E0A4EC42
S11305C0B1E001C01D92A03EB207E1F712E0CBEC0E
S11305D0D2E004C02197FE010E941B0DCA3CD10742
S11305E0C9F7A4D40C94FF0F4AC210BAEAE7F0E0AA
S11305F0808180688083808187608083ECE7F0E07D
S11306008081816480830895CF93DF93EC0180918E
S1130610CD018830C0F52091020130910301809111
S11306200001909101012817390740F480910201DB
S113063090910301909301018093000186ED91E074
S1130640E9D22BE431E040E050E060E070E086ED78
S113065091E089D39E0140E150E060E070E086EDD6
S113066091E081D32091CD0130E040E250E060E0A0
S113067070E086ED91E0ADD386ED91E0DCD280911F
S1130680CD01883040F21092CD01DF91CF910895D1
S113069086ED91E0BFD22BE431E040E050E060E031
S11306A070E086ED91E05FD32DE031E040E150E071
S11306B060E070E086ED91E056D320E030E040E267
S11306C050E060E070E086ED91E083D386ED91E048
S11306D0B2D2789441D78DE091E096DF8091000109
S11306E090910101059790930B0180930A0183E196
S11306F091E08ADF80910001909101010597909328
S113070009018093080189E191E07EDF8091000175
S113071090910101059790930701809306018FE161
S113072091E072DF8091000190910101059790930F
S113073005018093040115D786ED91E06BD228E280
S113074031E040E050E060E070E086ED91E00BD3F2
S113075020910A0130910B0140E050E068E170E023
S113076086ED91E036D32BE231E040E150E060E0E9
S113077070E086ED91E0F7D22091080130910901F3
S113078040E150E068E170E086ED91E022D32EE292
S113079031E040E250E060E070E086ED91E0E3D2C9
S11307A0209106013091070140E250E068E170E0D9
S11307B086ED91E00ED321E331E040E350E060E0C8
S11307C070E086ED91E0CFD22091040130910501D3
S11307D040E350E068E170E086ED91E0FAD286ED06
S11307E091E029D2F89408951F920F920FB60F92B8
S11307F011240BB60F922F933F938F939F93EF93F4
S1130800FF93419A20917800309179008091020100
S1130810909103012817390740F480917800909152
S113082079009093030180930201EAE7F0E080816C
S113083080648083FF91EF919F918F913F912F91DD
S11308400F900BBE0F900FBE0F901F9018958AB19A
S1130850837F8AB91DBAE9E6F0E0808180698083EC
S11308608CE08DBB08951F920F920FB60F92112446
S11308700BB60F922F933F934F935F936F937F9396
S11308808F939F93AF93BF93EF93FF9385E090E093
S11308900E94FD0C4A9B10C0409A8FEF93E0909306
S11308A0030180930201EAE7F0E08081886080839D
S11308B08081806480836DC04A996BC0429AEAE764
S11308C0F0E08081877F808380818F7B808320918B
S11308D002013091030180910A0190910B0182176A
S11308E0930718F1209102013091030180910801CE
S11308F09091090182179307D0F020910201309161
S1130900030180910601909107018217930788F0F3
S1130910209102013091030180910401909105011D
S11309208217930740F094E007C090E005C091E07F
S113093003C092E001C093E08091CD01883018F0AB
S113094080EF88B926C08091CD01811111C08091BA
S1130950CD018F5F8093CD01E091CB01F0E0E253B4
S1130960FE4F908381E08093CA018093C50111C03A
S11309708091CD018F5F8093CD018091CB018F5FFA
S113098087708093CB01E091CB01F0E0E253FE4FFE
S1130990908384E08CBBFF91EF91BF91AF919F91C5
S11309A08F917F916F915F914F913F912F910F9014
S11309B00BBE0F900FBE0F901F9018951F920F92B1
S11309C00FB60F9211240BB60F922F933F934F93B0
S11309D05F936F937F938F939F93AF93BF93EF93A3
S11309E0FF9385E090E00E94FD0C88B18F5F88B989
S11309F04B9930C08091DA05882331F18091CD0183
S1130A00823018F41092CD0125C08091CC018F5F03
S1130A108770E091CC01F0E0E253FE4F2081E82F93
S1130A20F0E0E253FE4F9081291719F091E0909382
S1130A30D8058093CC018091CD0181508093CD0164
S1130A4081E08093CA0106C082B18F7382B981E0CC
S1130A508093C40188E08CBBFF91EF91BF91AF916B
S1130A609F918F917F916F915F914F913F912F91C2
S1130A700F900BBE0F900FBE0F901F9018951F92F2
S1130A800F920FB60F9211248F938AEA88B98F912F
S1130A900F900FBE0F901F9018956623D4F040342A
S1130AA0C0F4242F26952695269570E030E8239FE0
S1130AB0600D711D1124FC01E60FF71F477081E0E2
S1130AC090E002C0880F991F4A95E2F79081892B24
S1130AD080830895FF920F931F93CF93DF93222374
S1130AE061F0C42FF62E8C01D22FD40F4C2F6F2D12
S1130AF0C801D3DFCF5FCD13F9CFDF91CF911F9121
S1130B000F91FF900895FF920F931F93CF93DF935C
S1130B10222361F0F42EC62F8C01D22FD60F4F2D35
S1130B206C2FC801BADFCF5FCD13F9CFDF91CF911E
S1130B301F910F91FF900895CF92DF92EF92FF9251
S1130B400F931F93CF93DF93EC01F62E142FD22E25
S1130B50E22EE61AE394C02EC41A2E2DD4DF2E2DD5
S1130B60402F6F2DCE01CFDF2C2D412F6F2DCE01C5
S1130B70B1DF2C2D412F6D2DCE01ACDFDF91CF9154
S1130B801F910F91FF90EF90DF90CF9008956F9297
S1130B907F928F929F92AF92BF92CF92DF92EF9209
S1130BA0FF920F931F93CF93DF936C01642EE11098
S1130BB002C0C2DF20C0041B2F5F261B822E912C93
S1130BC018141904C4F4762EA12CB12CE02EF12CA7
S1130BD0162DC0E0D0E0412F672DC6015EDF2196BF
S1130BE01F5FEC16FD06BCF78FEFA81AB80A7394C2
S1130BF0A814B90469F7DF91CF911F910F91FF9069
S1130C00EF90DF90CF90BF90AF909F908F907F90A8
S1130C106F900895FC019C5F1192E817F907E1F7C2
S1130C200895CF93DF93EC019C5FB1D4CE01F2DF42
S1130C30DF91CF910895BC019C5FFEC408952F926B
S1130C403F924F925F926F927F928F929F92AF9258
S1130C50BF92CF92DF92EF92FF920F931F93CF93A5
S1130C60DF9300D000D01F92CDB7DEB75C014B8379
S1130C7048013701CD826A832C2C260E30E06901AD
S1130C80CC0CDD1CCC0CDD1C2C0D3D1DC901885683
S1130C909F4F6C01362E1982442E98E0490EE9814B
S1130CA0E53009F441C0F60114913FC010FF11C0B2
S1130CB0FD81F13029F44C816A81C501EEDE1CC04E
S1130CC0EE24E3940F2D222D452D632DC5015FDF06
S1130CD013C06814790481F08D81813029F44C812A
S1130CE06A81C501DADE08C0EE24E3940F2D222DBB
S1130CF0452D632DC5014BDF16959D81590EF90EC7
S1130D00EC81EF5FEC83E411D1CFF981FF5FF983CC
S1130D10390E290E8A818F5F8A839FEFC91AD90AF7
S1130D20F63009F0BCCF07C010E05B80F52CED81F4
S1130D30FE0E5C82BBCF0F900F900F900F900F9020
S1130D40DF91CF911F910F91FF90EF90DF90CF90A3
S1130D50BF90AF909F908F907F906F905F904F90D7
S1130D603F902F9008956F927F928F929F92AF92AF
S1130D70BF92CF92EF92FF920F931F93CF93F901FB
S1130D80C62F20812223C1F05F013A014C018FEF6D
S1130D90A81AB80A6C2F70E06894CC24C1F8E12C2E
S1130DA0F12C00E010E0A301C40149DFC45FF501A8
S1130DB021915F012111EECFCF911F910F91FF90EF
S1130DC0EF90CF90BF90AF909F908F907F906F9057
S1130DD008958F929F92AF92BF92CF92DF92EF923B
S1130DE0FF920F931F93CF93DF93CDB7DEB76C01C0
S1130DF05B014A01EDB6FEB62A3031054CF02436CB
S1130E00310544F0283E43E0340734F087E005C060
S1130E1082E003C083E001C084E04DB75EB7481BA5
S1130E2051090FB6F8945EBF0FBE4DBF0DB71EB784
S1130E300F5F1F4F3F932F9384E391E09F938F9312
S1130E401F930F9301D6202F312FA401B501C601A2
S1130E508ADF0F900F900F900F900F900F900FB6A6
S1130E60F894FEBE0FBEEDBEDF91CF911F910F919E
S1130E70FF90EF90DF90CF90BF90AF909F908F90B6
S1130E8008950895FC0160831092B90080E2809374
S1130E90B8000895DC0184EA8093BC00ECEBF0E038
S1130EA090819923ECF79091B900987F11969C93C7
S1130EB01197983011F09031B9F48C918093BB0064
S1130EC084E88093BC00ECEBF0E090819923ECF78C
S1130ED09091B900987F11969C93983139F081E0F4
S1130EE0903429F480E0089581E0089580E0089525
S1130EF0DC016093BB0084E88093BC00ECEBF0E081
S1130F0090819923ECF79091B900987F11969C9366
S1130F1081E0983209F480E0089584E98093BC006C
S1130F20ECEBF0E0808184FDFDCF0895F894E1E6D8
S1130F30F0E080E8808310828DB18F708DB987B125
S1130F408FEF87B984B18F7184B985B1806E85B90B
S1130F508DB18F7C8DB98EB180638EB946DBDED2C4
S1130F6040D575DCDBD2AED3FCD280E8F0D28FE082
S1130F7088B9C0E00C2F12E0CC24C394DC2E0F2ED1
S1130F80F3E0EF2EF02DF12EF8D0D02F659902C0AA
S1130F9023D1DC2D1F9902C0F0D0DD2D1D99F6CF91
S1130FA084E190E02AD51D9BFECF84E190E025D515
S1130FB0D13079F540D1812F659902C06BD18E2D46
S1130FC01F9902C038D18F2D1E9BDECF1D99F4CFFF
S1130FD08330D1F45DDB80E090E0FC01E253FE4F0E
S1130FE01082019688309105C1F7C093CC01C0935B
S1130FF0CB011D99FECF84E190E0FFD41D9BFECF71
S113100084E190E0FAD4C0CFEDD3BECF1E99FECFD9
S11310100EC00F2EF4E6CF2EF02DD12C0F2EF2E3BE
S1131020EF2EF12CF02D06E910E0CC2DDD2D94D21D
S113103053D378945ED18091CA01882309F48EC079
S1131040F8948091D805882329F084E190E0D5D4E0
S11310501092D8058091C5018823B1F1E091CC01AB
S1131060F0E0E253FE4F8081811105C01092DD054E
S11310701092DC0526C0E091CC01F0E0E253FE4F73
S11310808081813029F4D093DD05C093DC0519C03B
S1131090E091CC01F0E0E253FE4F8081823029F4EC
S11310A01093DD050093DC050CC0E091CC01F0E069
S11310B0E253FE4F8081833021F4F092DD05E0920B
S11310C0DC051092C50147C0E091CC01F0E0E25389
S11310D0FE4F808181110AC01092DD051092DC055B
S11310E08091C9018F5F8093C90135C0E091CC0123
S11310F0F0E0E253FE4F8081813051F4D093DD055E
S1131100C093DC058091C8018F5F8093C80123C020
S1131110E091CC01F0E0E253FE4F8081823051F443
S11311201093DD050093DC058091C7018F5F8093E8
S1131130C70111C0E091CC01F0E0E253FE4F808181
S1131140833049F4F092DD05E092DC058091C6011C
S11311508F5F8093C6011092CA01789464996ACF14
S113116082B18F7382B98C2D9D2D47D4F89467D1A9
S11311704DCF86ED91E055CD0895EF920F9386ED16
S113118091E048DD27E331E040E050E060E070E0CA
S113119086ED91E0E8DDEE24E39401E12FE740E100
S11311A060E086ED91E0F3DC23E431E044E150E0DB
S11311B060E070E086ED91E0D6DD2AE431E044E2BF
S11311C050E060E070E086ED91E0CDDD86ED91E0E9
S11311D032DD0F91EF900895EF920F9386ED91E039
S11311E019DD27E331E040E050E060E070E086ED97
S11311F091E0B9DDEE24E39401E12FE740E160E002
S113120086ED91E0C4DC25E531E044E150E060E0A6
S113121070E086ED91E0A7DD2CE531E044E250E09A
S113122060E070E086ED91E09EDD86ED91E003DD07
S11312300F91EF900895EF920F9386ED91E0EADC21
S11312402BE431E040E050E060E070E086ED91E0B6
S11312508ADDEE24E39401E12FE740E160E086EDCE
S113126091E095DC27E631E044E150E060E070E095
S113127086ED91E078DD20E731E044E250E060E083
S113128070E086ED91E06FDD86ED91E0D4DC0F91A6
S1131290EF900895EF920F9386ED91E0BBDC2BE481
S11312A031E040E050E060E070E086ED91E05BDD2D
S11312B0EE24E39401E12FE740E160E086ED91E064
S11312C066DC2BE731E044E150E060E070E086ED5D
S11312D091E049DD24E831E044E250E060E070E070
S11312E086ED91E040DD86ED91E0A5DC0F91EF9075
S11312F00895EF920F93CF93DF9386ED91E08ADC0C
S11313002FE831E040E050E060E070E086ED91E0ED
S11313102ADD209102013091030140E050E068E4AD
S113132070E086ED91E055DDEE24E39401E12FE7D2
S113133040E160E086ED91E02ADCCEECD1E028814A
S113134030E044E150E060E070E086ED91E041DDA2
S1131350298130E044E150E06CE070E086ED91E0FA
S113136038DD2A8130E044E150E068E170E086ED48
S113137091E02FDD2B8130E044E150E064E270E045
S113138086ED91E026DD2C8130E044E150E060E31D
S113139070E086ED91E01DDD2D8130E044E150E008
S11313A06CE370E086ED91E014DD2E8130E044E1E1
S11313B050E068E470E086ED91E00BDD2F8130E0D1
S11313C044E150E064E570E086ED91E002DD2091B7
S11313D0CD0130E044E150E06CE670E086ED91E050
S11313E0F8DC6091CC0170E0CB01880F991F680F85
S11313F0791F660F771F660F771F25E931E044E2F6
S113140050E086ED91E0AFDC6091CB0170E0CB0160
S1131410880F991F680F791F660F771F660F771F54
S113142027E931E044E250E086ED91E09CDC86ED72
S113143091E001DCDF91CF910F91EF90089586ED5B
S113144091E0E8DB2BEA31E040E050E060E070E05E
S113145086ED91E088DC2091CD0130E040E050E061
S113146060E670E086ED91E0B4DC24EB31E040E12D
S113147050E060E070E086ED91E075DC2CEB31E04B
S113148040E250E060E070E086ED91E06CDC209199
S1131490C90130E040E250E068E170E086ED91E09F
S11314A098DC2BE231E040E250E06CE370E086ED42
S11314B091E059DC2091C80130E040E250E064E55D
S11314C070E086ED91E085DC2EE231E040E350E00F
S11314D060E070E086ED91E046DC2091C70130E0E9
S11314E040E350E068E170E086ED91E072DC21E3D6
S11314F031E040E350E06CE370E086ED91E033DCF2
S11315002091C60130E040E350E064E570E086EDF0
S113151091E05FDC86ED91E08ECB089584B181612A
S113152084B981B1806C81B9209AE0EBF0E08081CC
S113153083608083808180688083E1EBF0E0808138
S11315408160808380E88093B30028980895109286
S1131550B2008093B300089582B18F73806482B91E
S1131560089582B18F7382B908951F93CF93DF9347
S1131570EC01162F8FDC60E0CE01BADC612FCE01C6
S1131580B7DCCE01CADCDF91CF911F910895CF93D0
S1131590DF93EC0176DC68E7CE0174DC6EEACE0101
S11315A0E4DF65EDCE01E1DF60E8CE01DEDF68EA6D
S11315B0CE01DBDF6FE3CE01D8DF63EDCE01D5DFF3
S11315C060E0CE01D2DF60E4CE01CFDF6DE8CE0172
S11315D0CCDF64E1CE01C9DF60E2CE01C6DF60E0AA
S11315E0CE01C3DF61EACE01C0DF68ECCE01BDDF0E
S11315F06AEDCE01BADF62E1CE01B7DF61E8CE0168
S1131600B4DF6FECCE01B1DF69EDCE01AEDF61EF87
S1131610CE01ABDF6BEDCE01A8DF60E4CE01A5DF28
S113162064EACE01A2DF66EACE019FDF6FEACE0153
S11316309CDFDF91CF910895CF92DF92EF92FF92DA
S11316400F931F93CF93DF93082F192F7B0161E230
S11316508CDF60E0802F912F88DF6FE7802F912F40
S113166084DF62E2802F912F80DF60E0802F912F52
S11316707CDF67E0802F912F78DFE7018CEFF81A89
S1131680802F912F07DC60E4802F912F31DC6E01D5
S113169080E1C80ED11C6991802F912F29DCCC15D3
S11316A0DD05C9F7802F912F38DCE601EC14FD0429
S11316B039F7DF91CF911F910F91FF90EF90DF9059
S11316C0CF90089581B18F6381B984B5826084BD60
S11316D080E787BD16BC0895EEE6F0E08081826065
S11316E08083A99A85B5856085BD0895BF92CF9200
S11316F0DF92EF92FF920F931F93CF93DF9318160D
S113170019060CF065C08B01EC01C12CD12C0F2EF5
S1131710F2E1BF2EF02D0F2EF7ECEF2EF12CF02D71
S113172001151105D9F08091DE059091DF05019630
S11317309093DF058093DE058091DB058F5F8370D6
S11317408093DB058091DE059091DF05883C91054F
S1131750FCF01092DF051092DE051AC08091DE05C0
S11317609091DF05892B29F4F092DF05E092DE05E4
S113177009C08091DE059091DF0501979093DF0504
S11317808093DE058091DB05815083708093DB05B7
S113179082B1E091DB05807CF0E0E154FE4F908162
S11317A0892B82B98AE0C816D10414F4BA9406C00D
S11317B0CE018C199D0944970CF4B3948B2D90E0C1
S11317C01CD18FEFC81AD80ACC15DD0509F0A8CFB3
S11317D0DF91CF911F910F91FF90EF90DF90CF9009
S11317E0BF90089561E070E089E190E07FDF669B3F
S11317F007C061E070E081E090E078DF6699F9CF9E
S11318001092DF051092DE0508951F920F920FB615
S11318100F9211240BB60F922F933F934F935F9324
S11318208F939F93EF93FF938091DC059091DD0557
S11318302091DE053091DF05821B930BAC0122F46D
S113184044275527481B590B242F453610F028EC04
S1131850241B2F3008F042C0439A3091C401332333
S113186051F032B13F73306432B931E03093D9056D
S11318701092C40135C03091D905311104C031E052
S11318803093DA052DC0009759F5449A8091CD0123
S1131890823018F41092CD011EC08091CC018F5F6C
S11318A08770E091CC01F0E0E253FE4F3081E82FE5
S11318B0F0E0E253FE4F9081391719F091E09093D4
S11318C0D8058093CC018091CD0181508093CD01C6
S11318D081E08093CA011092D9054BC01092DA05B9
S11318E0AC01415051094336510520F08C393FEF8A
S11318F09307DCF48091DE059091DF0501969093C7
S1131900DF058093DE058091DE059091DF05883C3C
S1131910910524F01092DF051092DE058091DB051D
S11319208F5F83708093DB0524C0AC014C595F4FFB
S11319304436510518F084369105DCF08091DE05BB
S11319409091DF0501979093DF058093DE058091E8
S1131950DE059091DF05992334F487EC90E09093B1
S1131960DF058093DE058091DB05815083708093D1
S1131970DB0582B1E091DB05807CF0E0E154FE4FB1
S11319809081892B82B92F31A0F080910C018A3487
S113199050F40FC080910C01813770F016BC809117
S11319A00C0187BD0FC080910C01845080930C0101
S11319B0F5CF2B3078F3F2CF80910C018C5F8093BC
S11319C00C01ECCFFF91EF919F918F915F914F911B
S11319D03F912F910F900BBE0F900FBE0F901F9051
S11319E01895E1E8F0E080818860808388EE93E0D8
S11319F090938900809388000895AC01E1E8F0E0B9
S1131A009081926090831092850010928400B19A24
S1131A1020E030E02417350744F4B19902C0B19BAB
S1131A20FECFB19A2F5F3F4FF5CFE1E8F0E0808120
S1131A30887F80830895EE0FFF1F0024001C0BBED7
S1131A400790F691E02D09940F931F93CF93DF93A2
S1131A50CDB7DEB72E970FB6F894DEBF0FBECDBF5D
S1131A600D891E8986E08C831A8309838FEF9FE793
S1131A709E838D83AE01475E5F4F6F89788DCE0163
S1131A80019610D0EF81F885E00FF11F10822E9699
S1131A900FB6F894DEBF0FBECDBFDF91CF911F917B
S1131AA00F9108952F923F924F925F926F927F927F
S1131AB08F929F92AF92BF92CF92DF92EF92FF925A
S1131AC00F931F93CF93DF93CDB7DEB72B970FB64A
S1131AD0F894DEBF0FBECDBF6C017B018A01FC010F
S1131AE017821682838181FFBFC1CE0101963C011A
S1131AF0F6019381F70193FD859193FF81917F0115
S1131B00882309F4ADC1853239F493FD859193FF9F
S1131B1081917F01853221F4B60190E0D6D1E8CFDE
S1131B20912C212C312CFFE1F315D8F08B3279F074
S1131B3038F4803279F08332A1F4232D20611DC062
S1131B408D3261F0803369F4232D216016C0832D1A
S1131B508260382EE32DE4603E2E2AC0F32DF86017
S1131B601DC037FC2DC020ED280F2A3040F08E32E6
S1131B70B9F436FC75C1232D2064322E19C036FE0B
S1131B8006C08AE0989E200D1124922E11C0EAE02E
S1131B902E9E200D1124222EF32DF0623F2E08C01C
S1131BA08C3621F4832D8068382E02C0883641F4A7
S1131BB0F70193FD859193FF81917F018111B3CF4B
S1131BC0982F9F7D9554933028F40C5F1F4F9FE30B
S1131BD099830DC0833631F0833771F0833509F072
S1131BE055C020C0F801808189830E5F1F4F88246F
S1131BF08394912C530112C02801F2E04F0E511C22
S1131C00F801A080B18036FE03C0692D70E002C0E7
S1131C106FEF7FEFC5014ED14C018201F32DFF77A9
S1131C203F2E15C0280122E0420E511CF801A0806D
S1131C30B18036FE03C0692D70E002C06FEF7FEF04
S1131C40C5012DD14C01F32DF0683F2E820133FCE8
S1131C5019C0822D90E088169906A0F4B60180E29E
S1131C6090E033D12A94F5CFF50137FC859137FE06
S1131C7081915F01B60190E028D121102A9421E0DE
S1131C80821A91088114910479F7E1C0843611F025
S1131C90893639F5F80137FE07C060817181828188
S1131CA093810C5F1F4F08C060817181072E000C67
S1131CB0880B990B0E5F1F4FF32DFF763F2E97FF76
S1131CC009C090958095709561957F4F8F4F9F4F78
S1131CD0F0683F2E2AE030E0A30133D1882E861825
S1131CE044C0853731F4232D2F7EB22E2AE030E014
S1131CF025C0932D997FB92E8F36C1F018F48835FD
S1131D0079F0AEC0803719F0883721F0A9C0E92FE7
S1131D10E061BE2EB4FE0DC0FB2DF460BF2E09C0E1
S1131D2034FE0AC0292F2660B22E06C028E030E017
S1131D3005C020E130E002C020E132E0F801B7FE46
S1131D4007C060817181828193810C5F1F4F06C03F
S1131D506081718180E090E00E5F1F4FA301F1D09C
S1131D60882E8618FB2DFF773F2E36FE0DC0232DBF
S1131D702E7FA22E891458F434FE0BC032FC09C005
S1131D80832D8E7EA82E05C0B82CA32C03C0B82C9E
S1131D9001C0B92CA4FE0FC0FE01E80DF11D808125
S1131DA0803321F49A2D997EA92E09C0A2FE06C083
S1131DB0B394B39404C08A2D867809F0B394A3FC39
S1131DC010C0A0FE06C0B21480F4280C922C9B18FC
S1131DD00DC0B21458F4B60180E290E076D0B3940A
S1131DE0F8CFB21418F42B1802C0982C212CA4FE9E
S1131DF00FC0B60180E390E068D0A2FE16C0A1FC3B
S1131E0003C088E790E002C088E590E0B6010CC00A
S1131E108A2D867851F0A1FE02C08BE201C080E2D7
S1131E20A7FC8DE2B60190E050D0891430F4B601DD
S1131E3080E390E04AD09A94F8CF8A94F301E80DB5
S1131E40F11D8081B60190E040D08110F6CF2220B0
S1131E5009F44ECEB60180E290E037D02A94F7CF51
S1131E60F6018681978102C08FEF9FEF2B960FB604
S1131E70F894DEBF0FBECDBFDF91CF911F910F91BC
S1131E80FF90EF90DF90CF90BF90AF909F908F9096
S1131E907F906F905F904F903F902F900895FC013A
S1131EA00590615070400110D8F7809590958E0F81
S1131EB09F1F0895FC016150704001900110D8F7F4
S1131EC0809590958E0F9F1F08950F931F93CF9326
S1131ED0DF93FB01238121FD03C08FEF9FEF2CC013
S1131EE022FF16C04681578124813581421753074A
S1131EF044F4A081B1819D012F5F3F4F3183208342
S1131F008C93268137812F5F3F4F3783268314C0FC
S1131F108B01EC01FB010084F185E02D0995892BEF
S1131F20E1F6D80116968D919C9117970196179614
S1131F309C938E931697CE01DF91CF911F910F91B1
S1131F400895FA01AA27283051F1203181F1E8944B
S1131F506F936E7F6E5F7F4F8F4F9F4FAF4FB1E098
S1131F603ED0B4E03CD0670F781F891F9A1FA11D93
S1131F70680F791F8A1F911DA11D6A0F711D811D94
S1131F80911DA11D20D009F468943F912AE0269F59
S1131F9011243019305D3193DEF6CF010895462FB8
S1131FA04770405D4193B3E00FD0C9F7F6CF462F99
S1131FB04F70405D4A3318F0495D31FD4052419302
S1131FC002D0A9F7EACFB4E0A695979587957795BF
S1131FD06795BA95C9F700976105710508959B0146
S1131FE0AC010A2E06945795479537952795BA95CF
S1131FF0C9F7620F731F841F951FA01D0895F894DD
S1052000FFCF0C
S1132002FF03FF034100FD019103A30370426C61CE
S1132012636B00576869746500537465656C0041AD
S11320226C756D696E756D00423A00573A00533A09
S113203200413A002569004974656D20536F72743A
S11320426572003E5374617274002043616C69626C
S11320527261746500205374617274003E43616C52
S1132062696272617465003E5374657070657200D2
S1132072204F70746963616C20530020537465703F
S1132082706572003E4F70746963616C2053005135
S1132092756575650066006200476F616C3A0043BE
S11320A275723A0044656C61793A004F6E2042655C
S11320B26C743A00536F727465643A00423D0030A6
S10720C206280500E3
S9030000FC
