:10000000CAC20000F1C20000EFC200002CC4000010
:10001000D5C40000E9C20000E7C20000E5C200004C
:10002000E3C20000E1C20000DFC20000DDC2000048
:10003000DBC20000D9C20000D7C20000D5C2000058
:10004000D3C20000D1C20000CFC20000CDC2000068
:10005000CBC200000C943F0BC7C20000C5C2000019
:10006000C3C20000C1C20000BFC20000BDC2000088
:10007000BBC20000B9C30000B7C20000B5C2000097
:10008000B3C20000B1C20000AFC20000ADC20000A8
:10009000ABC20000A9C2000000000000003E5B4FA0
:1000A0005B3E3E6B4F6B3E1C3E7C3E1C183C7E3CD8
:1000B000181C577D571C1C5E7F5E1C00183C1800E6
:1000C000FFE7C3E7FF0018241800FFE7DBE7FF3076
:1000D000483A060E2629792926407F050507407FE4
:1000E00005253F5A3CE73C5A7F3E1C1C08081C1C57
:1000F0003E7F14227F22145F5F005F5F06097F014D
:100100007F006689956A606060606094A2FFA29437
:1001100008047E040810207E201008082A1C080805
:100120001C2A08081E101010100C1E0C1E0C303853
:100130003E3830060E3E0E06000000000000005F54
:1001400000000007000700147F147F14242A7F2A70
:100150001223130864623649562050000807030032
:10016000001C2241000041221C002A1C7F1C2A087E
:10017000083E0808008070300008080808080000E1
:1001800060600020100804023E5149453E00427F55
:10019000400072494949462141494D331814127FA4
:1001A0001027454545393C4A494931412111090744
:1001B0003649494936464949291E000014000000C5
:1001C0004034000000081422411414141414004197
:1001D00022140802015909063E415D594E7C121154
:1001E000127C7F494949363E414141227F4141418C
:1001F0003E7F494949417F090909013E4141517307
:100200007F0808087F00417F41002040413F017F77
:10021000081422417F404040407F021C027F7F043F
:1002200008107F3E4141413E7F090909063E415188
:10023000215E7F09192946264949493203017F0178
:10024000033F4040403F1F2040201F3F4038403F79
:10025000631408146303047804036159494D43008F
:100260007F4141410204081020004141417F0402C6
:10027000010204404040404000030708002054545D
:1002800078407F284444383844444428384444283B
:100290007F385454541800087E090218A4A49C788E
:1002A0007F0804047800447D40002040403D007FEA
:1002B0001028440000417F40007C047804787C08CA
:1002C0000404783844444438FC182424181824249E
:1002D00018FC7C08040408485454542404043F4483
:1002E000243C4040207C1C2040201C3C4030403CB2
:1002F00044281028444C9090907C4464544C440012
:100300000836410000007700000041360800020175
:100310000204023C2623263C1EA1A161123A404061
:10032000207A3854545559215555794122545478DE
:1003300042215554784020545579400C1E52721277
:100340003955555559395454545939555454580000
:1003500000457C410002457D420001457C407D1204
:1003600011127DF0282528F07C5455450020545466
:100370007C547C0A097F4932494949323A44444411
:100380003A324A4848303A4141217A3A424020784C
:10039000009DA0A07D3D4242423D3D4040403D3C4D
:1003A00024FF2424487E4943662B2FFC2F2BFF0972
:1003B00029F620C0887E0903205454794100004466
:1003C0007D413048484A32384040227A007A0A0A51
:1003D000727D0D19317D2629292F282629292926C4
:1003E00030484D4020380808080808080808382F09
:1003F00010C8ACBA2F102834FA00007B0000081493
:100400002A142222142A1408AA005500AAAA55AABE
:1004100055AA000000FF00101010FF00141414FF74
:10042000001010FF00FF1010F010F0141414FC0066
:100430001414F700FF0000FF00FF1414F404FC1470
:100440001417101F10101F101F1414141F00101069
:1004500010F0000000001F101010101F10101010DE
:10046000F010000000FF101010101010101010FFFE
:1004700010000000FF140000FF00FF00001F101715
:100480000000FC04F414141710171414F404F400FE
:1004900000FF00F714141414141414F700F71414C4
:1004A00014171410101F101F141414F4141010F04B
:1004B00010F000001F101F0000001F14000000FCBF
:1004C000140000F010F01010FF10FF141414FF14AB
:1004D0001010101F00000000F010FFFFFFFFFFF0E2
:1004E000F0F0F0F0FFFFFF0000000000FFFF0F0F33
:1004F0000F0F0F3844443844FC4A4A4A347E020203
:100500000606027E027E0263554941633844443C3C
:1005100004407E201E2006027E020299A5E7A599CE
:100520001C2A492A1C4C7201724C304A4D4D303005
:1005300048784830BC625A463D3E494949007E01F0
:1005400001017E2A2A2A2A2A44445F444440514A0F
:10055000444040444A51400000FF0103E080FF0056
:100560000008086B6B083612362436060F090F0692
:10057000000018180000001010003040FF010100BA
:100580001F01011E00191D1712003C3C3C3C0000DD
:1005900000000000620811241FBECFEFD0E2DEBFD2
:1005A000CDBF11E0A0E0B1E0E6E7FEE100E00BBF67
:1005B00002C007900D92A03BB107D9F725E0A0EB50
:1005C000B1E001C01D92A73CB207E1F712E0CBEC0D
:1005D000D2E004C02197FE010E94550CCA3CD1070D
:1005E000C9F7A3D40C94390F49C210BAEAE7F0E076
:1005F000808180688083808187608083ECE7F0E081
:100600008081816480830895CF93DF93EC01809192
:10061000B4018830C0F5209102013091030180912E
:100620000001909101012817390740F480910201DF
:100630009091030190930101809300018DEB91E073
:10064000E8D22BE431E040E050E060E070E08DEB78
:1006500091E088D39E0140E150E060E070E08DEBD6
:1006600091E080D32091B40130E040E250E060E0BE
:1006700070E08DEB91E0ACD38DEB91E0DBD280911B
:10068000B401883040F21092B401DF91CF91089507
:100690008DEB91E0BED22BE431E040E050E060E031
:1006A00070E08DEB91E05ED32DE031E040E150E071
:1006B00060E070E08DEB91E055D320E030E040E267
:1006C00050E060E070E08DEB91E082D38DEB91E043
:1006D000B1D278947BD68DE091E096DF80910001D5
:1006E00090910101059790930B0180930A0183E19A
:1006F00091E08ADF8091000190910101059790932C
:1007000009018093080189E191E07EDF8091000179
:1007100090910101059790930701809306018FE165
:1007200091E072DF80910001909101010597909313
:100730000501809304014FD68DEB91E06AD228E247
:1007400031E040E050E060E070E08DEB91E00AD3F2
:1007500020910A0130910B0140E050E068E170E027
:100760008DEB91E035D32BE231E040E150E060E0E9
:1007700070E08DEB91E0F6D22091080130910901F3
:1007800040E150E068E170E08DEB91E021D32EE292
:1007900031E040E250E060E070E08DEB91E0E2D2C9
:1007A000209106013091070140E250E068E170E0DD
:1007B0008DEB91E00DD321E331E040E350E060E0C8
:1007C00070E08DEB91E0CED22091040130910501D3
:1007D00040E350E068E170E08DEB91E0F9D28DEB01
:1007E00091E028D2F89408951F920F920FB60F92BD
:1007F00011240BB60F922F933F938F939F93EF93F8
:10080000FF93419A20917800309179008091020104
:10081000909103012817390740F480917800909156
:1008200079009093030180930201EAE7F0E0808170
:1008300080648083FF91EF919F918F913F912F91E1
:100840000F900BBE0F900FBE0F901F9018958AB19E
:10085000837F8AB91DBAE9E6F0E0808180698083F0
:100860008CE08DBB08951F920F920FB60F9211244A
:100870000BB60F922F933F934F935F936F937F939A
:100880008F939F93AF93BF93EF93FF9385E090E097
:10089000EED74A9B10C0409A8FEF93E090930301EC
:1008A00080930201EAE7F0E08081886080838081A4
:1008B000806480836EC04A996CC0429AEAE7F0E097
:1008C0008081877F808380818F7B8083209102015C
:1008D0003091030180910A0190910B0182179307D7
:1008E00018F120910201309103018091080190914B
:1008F000090182179307D0F0209102013091030182
:1009000080910601909107018217930788F020914A
:100910000201309103018091040190910501821739
:10092000930740F094E007C090E005C091E003C059
:1009300092E001C093E08091B401883018F080EF1C
:1009400088B927C08091B40181110FC08091B40192
:100950008F5F8093B401E091B201F0E0EB54FE4F61
:10096000908381E08093B10114C08091B4018F5FC6
:100970008093B4018091B2018F5F87708093B20140
:10098000E091B201F0E0EB54FE4F908381E0809360
:10099000B10184E08CBBFF91EF91BF91AF919F912A
:1009A0008F917F916F915F914F913F912F910F9018
:1009B0000BBE0F900FBE0F901F9018951F920F92B5
:1009C0000FB60F9211240BB60F922F933F934F93B4
:1009D0005F936F937F938F939F93AF93BF93EF93A7
:1009E000FF9385E090E043D788B18F5F88B94B993A
:1009F00030C08091C105882331F18091B4018230EB
:100A000018F41092B40125C08091B3018F5F8770F4
:100A1000E091B301F0E0EB54FE4F2081E82FF0E0CD
:100A2000EB54FE4F9081291719F091E09093BF0588
:100A30008093B3018091B40181508093B40181E02F
:100A40008093B10106C082B18F7382B981E0809337
:100A5000B00188E08CBBFF91EF91BF91AF919F9166
:100A60008F917F916F915F914F913F912F910F9057
:100A70000BBE0F900FBE0F901F9018951F920F92F4
:100A80000FB60F9211248F938AEA88B98F910F9035
:100A90000FBE0F901F9018956623D4F04034C0F419
:100AA000242F26952695269570E030E8239F600D2B
:100AB000711D1124FC01E60FF71F477081E090E0E3
:100AC00002C0880F991F4A95E2F79081892B808395
:100AD0000895FF920F931F93CF93DF93222361F02A
:100AE000C42FF62E8C01D22FD40F4C2F6F2DC8019E
:100AF000D3DFCF5FCD13F9CFDF91CF911F910F914E
:100B0000FF900895FF920F931F93CF93DF932223BB
:100B100061F0F42EC62F8C01D22FD60F4F2D6C2FE3
:100B2000C801BADFCF5FCD13F9CFDF91CF911F910D
:100B30000F91FF900895CF92DF92EF92FF920F9363
:100B40001F93CF93DF93EC01F62E142FD22EE22EBB
:100B5000E61AE394C02EC41A2E2DD4DF2E2D402F7A
:100B60006F2DCE01CFDF2C2D412F6F2DCE01B1DFA8
:100B70002C2D412F6D2DCE01ACDFDF91CF911F9138
:100B80000F91FF90EF90DF90CF9008956F927F923A
:100B90008F929F92AF92BF92CF92DF92EF92FF928D
:100BA0000F931F93CF93DF936C01642EE11002C06B
:100BB000C2DF20C0041B2F5F261B822E912C18142D
:100BC0001904C4F4762EA12CB12CE02EF12C162D94
:100BD000C0E0D0E0412F672DC6015EDF21961F5F88
:100BE000EC16FD06BCF78FEFA81AB80A7394A81488
:100BF000B90469F7DF91CF911F910F91FF90EF90AA
:100C0000DF90CF90BF90AF909F908F907F906F902C
:100C10000895FC019C5F1192E817F907E1F7089528
:100C2000CF93DF93EC019C5FECD3CE01F2DFDF9139
:100C3000CF910895BC019C5F39C408952F923F92D3
:100C40004F925F926F927F928F929F92AF92BF92DC
:100C5000CF92DF92EF92FF920F931F93CF93DF9388
:100C600000D000D01F92CDB7DEB75C014B834801A6
:100C70003701CD826A832C2C260E30E06901CC0C22
:100C8000DD1CCC0CDD1C2C0D3D1DC90188569F4F71
:100C90006C01362E1982442E98E0490EE981E53028
:100CA00009F441C0F60114913FC010FF11C0FD814D
:100CB000F13029F44C816A81C501EEDE1CC0EE24BE
:100CC000E3940F2D222D452D632DC5015FDF13C049
:100CD0006814790481F08D81813029F44C816A8116
:100CE000C501DADE08C0EE24E3940F2D222D452D38
:100CF000632DC5014BDF16959D81590EF90EEC81D0
:100D0000EF5FEC83E411D1CFF981FF5FF983390EF6
:100D1000290E8A818F5F8A839FEFC91AD90AF6301C
:100D200009F0BCCF07C010E05B80F52CED81FE0E12
:100D30005C82BBCF0F900F900F900F900F90DF91C0
:100D4000CF911F910F91FF90EF90DF90CF90BF90C8
:100D5000AF909F908F907F906F905F904F903F905B
:100D60002F9008956F927F928F929F92AF92BF9231
:100D7000CF92EF92FF920F931F93CF93F901C62F5B
:100D800020812223C1F05F013A014C018FEFA81AA4
:100D9000B80A6C2F70E06894CC24C1F8E12CF12CD7
:100DA00000E010E0A301C40149DFC45FF501219117
:100DB0005F012111EECFCF911F910F91FF90EF9026
:100DC000CF90BF90AF909F908F907F906F9008953D
:100DD0008F929F92AF92BF92CF92DF92EF92FF924B
:100DE0000F931F93CF93DF93CDB7DEB76C015B01F9
:100DF0004A01EDB6FEB62A3031054CF024363105F5
:100E000044F0283E43E0340734F087E005C082E038
:100E100003C083E001C084E04DB75EB7481B5109B1
:100E20000FB6F8945EBF0FBE4DBF0DB71EB70F5F74
:100E30001F4F3F932F9384E391E09F938F931F93D2
:100E40000F933CD5202F312FA401B501C6018ADFB5
:100E50000F900F900F900F900F900F900FB6F89487
:100E6000FEBE0FBEEDBEDF91CF911F910F91FF909F
:100E7000EF90DF90CF90BF90AF909F908F900895AC
:100E80000895FC0160831092B90080E28093B8005D
:100E90000895DC0184EA8093BC00ECEBF0E09081E3
:100EA0009923ECF79091B900987F11969C93119734
:100EB000983011F09031B9F48C918093BB0084E8A4
:100EC0008093BC00ECEBF0E090819923ECF79091DB
:100ED000B900987F11969C93983139F081E0903455
:100EE00029F480E0089581E0089580E00895DC0110
:100EF0006093BB0084E88093BC00ECEBF0E0908151
:100F00009923ECF79091B900987F11969C9381E01A
:100F1000983209F480E0089584E98093BC00ECEBFA
:100F2000F0E0808184FDFDCF0895F894E1E6F0E0E3
:100F300080E8808310828DB18F708DB987B18FEF7B
:100F400087B984B18F7184B985B1806E85B98DB14F
:100F50008F7C8DB98EB180638EB947DB19D27BD47B
:100F600076DC16D2E9D237D280E82BD2C0E00C2F43
:100F700012E0CC24C394DC2E0F2EF3E0EF2EF02DE4
:100F8000F12EA4D0D02F659902C0CFD0DC2D1F99AF
:100F900002C09CD0DD2D1D99F6CF84E190E067D48E
:100FA0001D9BFECF84E190E062D4D13069F5ECD096
:100FB000812F659902C017D18E2D1F9902C0E4D0F0
:100FC0008F2D1E9BDECF1D99F4CF8330D1F460DBD3
:100FD00080E090E0FC01EB54FE4F108201968830D7
:100FE0009105C1F7C093B301C093B2011D99FECF23
:100FF00084E190E03CD41D9BFECF84E190E037D4A7
:10100000C0CF2AD3BECFFFCFE1D1A0D278940F2E8C
:10101000F2E3EF2EF12CF02D06E910E0C4E6D0E06B
:1010200011D18091B101882309F440C0F8948091D6
:10103000BF05882329F084E190E019D41092BF0500
:10104000E091B301F0E0EB54FE4F8081811105C0C7
:101050001092C4051092C30526C0E091B301F0E0E0
:10106000EB54FE4F8081813029F4D093C405C093A6
:10107000C30519C0E091B301F0E0EB54FE4F80814D
:10108000823029F41093C4050093C3050CC0E0918D
:10109000B301F0E0EB54FE4F8081833021F4F092F5
:1010A000C405E092C3051092B10178942E99B8CF8F
:1010B00082B18F7382B984E690E0D9D3F8948CEC36
:1010C00088B9A1CF8DEB91E0ABCD0895EF920F934E
:1010D0008DEB91E09EDD27E331E040E050E060E001
:1010E00070E08DEB91E03EDEEE24E39401E12FE72A
:1010F00040E160E08DEB91E049DD23E431E044E143
:1011000050E060E070E08DEB91E02CDE2AE431E00D
:1011100044E250E060E070E08DEB91E023DE8DEB87
:1011200091E088DD0F91EF900895EF920F938DEB92
:1011300091E06FDD27E331E040E050E060E070E0F7
:101140008DEB91E00FDEEE24E39401E12FE740E127
:1011500060E08DEB91E01ADD25E531E044E150E0FF
:1011600060E070E08DEB91E0FDDD2CE531E044E2E4
:1011700050E060E070E08DEB91E0F4DD8DEB91E00C
:1011800059DD0F91EF900895EF920F938DEB91E061
:1011900040DD2BE431E040E050E060E070E08DEBBA
:1011A00091E0E0DDEE24E39401E12FE740E160E02F
:1011B0008DEB91E0EBDC27E631E044E150E060E0CC
:1011C00070E08DEB91E0CEDD20E731E044E250E0CD
:1011D00060E070E08DEB91E0C5DD8DEB91E02ADD04
:1011E0000F91EF900895EF920F938DEB91E011DD49
:1011F0002BE431E040E050E060E070E08DEB91E006
:10120000B1DDEE24E39401E12FE740E160E08DEBF6
:1012100091E0BCDC2BE731E044E150E060E070E0BD
:101220008DEB91E09FDD24E831E044E250E060E0A6
:1012300070E08DEB91E096DD8DEB91E0FBDC0F91A2
:10124000EF900895EF920F93CF93DF938DEB91E0A2
:10125000E0DC2FE831E040E050E060E070E08DEB52
:1012600091E080DD209102013091030140E050E0E7
:1012700068E470E08DEB91E0ABDDEE24E39401E1F6
:101280002FE740E160E08DEB91E080DCC5EBD1E041
:10129000288130E044E150E060E070E08DEB91E0C7
:1012A00097DD298130E044E150E06CE070E08DEBA7
:1012B00091E08EDD2A8130E044E150E068E170E0A9
:1012C0008DEB91E085DD2B8130E044E150E064E27C
:1012D00070E08DEB91E07CDD2C8130E044E150E06A
:1012E00060E370E08DEB91E073DD2D8130E044E14F
:1012F00050E06CE370E08DEB91E06ADD2E8130E030
:1013000044E150E068E470E08DEB91E061DD2F8115
:1013100030E044E150E064E570E08DEB91E058DDB1
:101320002091B40130E044E150E06CE670E08DEBD8
:1013300091E04EDD6091B30170E0CB01880F991F01
:10134000680F791F660F771F660F771F25E931E059
:1013500044E250E08DEB91E005DD6091B20170E078
:10136000CB01880F991F680F791F660F771F660FD3
:10137000771F27E931E044E250E08DEB91E0F2DCA9
:101380008DEB91E057DCDF91CF910F91EF900895B5
:1013900084B1816184B981B1806C81B9209AE0EB1C
:1013A000F0E0808183608083808180688083E1EBCE
:1013B000F0E080818160808380E88093B30028988A
:1013C00008951092B2008093B300089582B18F7394
:1013D000806482B9089582B18F7382B908951F9392
:1013E000CF93DF93EC01162F54DD60E0CE017FDD5B
:1013F000612FCE017CDDCE018FDDDF91CF911F917A
:101400000895CF93DF93EC013BDD68E7CE0139DD32
:101410006EEACE01E4DF65EDCE01E1DF60E8CE01EA
:10142000DEDF68EACE01DBDF6FE3CE01D8DF63EDFC
:10143000CE01D5DF60E0CE01D2DF60E4CE01CFDFA8
:101440006DE8CE01CCDF64E1CE01C9DF60E2CE0100
:10145000C6DF60E0CE01C3DF61EACE01C0DF68EC29
:10146000CE01BDDF6AEDCE01BADF62E1CE01B7DFAA
:1014700061E8CE01B4DF6FECCE01B1DF69EDCE01E2
:10148000AEDF61EFCE01ABDF6BEDCE01A8DF60E434
:10149000CE01A5DF64EACE01A2DF66EACE019FDFBE
:1014A0006FEACE019CDFDF91CF910895CF92DF925A
:1014B000EF92FF920F931F93CF93DF93082F192F73
:1014C0007B0161E28CDF60E0802F912F88DF6FE786
:1014D000802F912F84DF62E2802F912F80DF60E0E8
:1014E000802F912F7CDF67E0802F912F78DFE7013D
:1014F0008CEFF81A802F912FCCDC60E4802F912F95
:10150000F6DC6E0180E1C80ED11C6991802F912F0D
:10151000EEDCCC15DD05C9F7802F912FFDDCE6014F
:10152000EC14FD0439F7DF91CF911F910F91FF90DB
:10153000EF90DF90CF90089581B18F6381B984B52A
:10154000826084BD80E787BD16BC0895EEE6F0E0BA
:10155000808182608083A99A85B5856085BD089564
:10156000BF92CF92DF92EF92FF920F931F93CF9390
:10157000DF93181619060CF065C08B01EC01C12C25
:10158000D12C0F2EF2E1BF2EF02D0F2EF7ECEF2E07
:10159000F12CF02D01151105D9F08091C505909120
:1015A000C60501969093C6058093C5058091C20536
:1015B0008F5F83708093C2058091C5059091C605A9
:1015C000883C9105FCF01092C6051092C5051AC022
:1015D0008091C5059091C605892B29F4F092C60526
:1015E000E092C50509C08091C5059091C605019797
:1015F0009093C6058093C5058091C2058150837084
:101600008093C20582B1E091C205807CF0E0E5558F
:10161000FE4F9081892B82B98AE0C816D10414F458
:10162000BA9406C0CE018C199D0944970CF4B3946A
:101630008B2D90E01CD18FEFC81AD80ACC15DD0590
:1016400009F0A8CFDF91CF911F910F91FF90EF90FC
:10165000DF90CF90BF90089561E070E089E190E065
:101660007FDF669B07C061E070E081E090E078DF9B
:101670006699F9CF1092C6051092C50508951F927C
:101680000F920FB60F9211240BB60F922F933F9328
:101690004F935F938F939F93EF93FF938091C30535
:1016A0009091C4052091C5053091C605821B930B0E
:1016B000AC0122F444275527481B590B242F4536EB
:1016C00010F028EC241B2F3008F042C0439A3091D0
:1016D000B001332351F032B13F73306432B931E09D
:1016E0003093C0051092B00135C03091C005311162
:1016F00004C031E03093C1052DC0009759F5449ADC
:101700008091B401823018F41092B4011EC080910F
:10171000B3018F5F8770E091B301F0E0EB54FE4FAF
:101720003081E82FF0E0EB54FE4F9081391719F02B
:1017300091E09093BF058093B3018091B4018150F3
:101740008093B40181E08093B1011092C0054BC039
:101750001092C105AC01415051094336510520F0AA
:101760008C393FEF9307DCF48091C5059091C60555
:1017700001969093C6058093C5058091C50590910B
:10178000C605883C910524F01092C6051092C50547
:101790008091C2058F5F83708093C20524C0AC0125
:1017A0004C595F4F4436510518F084369105DCF0F2
:1017B0008091C5059091C60501979093C6058093C9
:1017C000C5058091C5059091C605992334F487EC31
:1017D00090E09093C6058093C5058091C205815025
:1017E00083708093C20582B1E091C205807CF0E0F5
:1017F000E555FE4F9081892B82B92F31A0F0809161
:101800000C018A3450F40FC080910C01813770F0C4
:1018100016BC80910C0187BD0FC080910C018450D3
:1018200080930C01F5CF2B3078F3F2CF80910C012F
:101830008C5F80930C01ECCFFF91EF919F918F9182
:101840005F914F913F912F910F900BBE0F900FBE64
:101850000F901F901895E1E8F0E080818860808308
:1018600088EE93E090938900809388000895AC01FE
:10187000E1E8F0E0908192609083109285001092F0
:101880008400B19A20E030E02417350744F4B19980
:1018900002C0B19BFECFB19A2F5F3F4FF5CFE1E879
:1018A000F0E08081887F80830895EE0FFF1F002481
:1018B000001C0BBE0790F691E02D09940F931F9327
:1018C000CF93DF93CDB7DEB72E970FB6F894DEBF78
:1018D0000FBECDBF0D891E8986E08C831A830983D4
:1018E0008FEF9FE79E838D83AE01475E5F4F6F89C9
:1018F000788DCE01019610D0EF81F885E00FF11FB1
:1019000010822E960FB6F894DEBF0FBECDBFDF91CA
:10191000CF911F910F9108952F923F924F925F9216
:101920006F927F928F929F92AF92BF92CF92DF92EF
:10193000EF92FF920F931F93CF93DF93CDB7DEB754
:101940002B970FB6F894DEBF0FBECDBF6C017B01A5
:101950008A01FC0117821682838181FFBFC1CE01FB
:1019600001963C01F6019381F70193FD859193FF68
:1019700081917F01882309F4ADC1853239F493FD4B
:10198000859193FF81917F01853221F4B60190E02A
:10199000D6D1E8CF912C212C312CFFE1F315D8F0D2
:1019A0008B3279F038F4803279F08332A1F4232D30
:1019B00020611DC08D3261F0803369F4232D2160D8
:1019C00016C0832D8260382EE32DE4603E2E2AC09F
:1019D000F32DF8601DC037FC2DC020ED280F2A30F4
:1019E00040F08E32B9F436FC75C1232D2064322EBE
:1019F00019C036FE06C08AE0989E200D1124922E52
:101A000011C0EAE02E9E200D1124222EF32DF0624B
:101A10003F2E08C08C3621F4832D8068382E02C0FA
:101A2000883641F4F70193FD859193FF81917F0101
:101A30008111B3CF982F9F7D9554933028F40C5F7C
:101A40001F4F9FE399830DC0833631F0833771F0C8
:101A5000833509F055C020C0F801808189830E5F6D
:101A60001F4F88248394912C530112C02801F2E067
:101A70004F0E511CF801A080B18036FE03C0692DC5
:101A800070E002C06FEF7FEFC5014ED14C018201C3
:101A9000F32DFF773F2E15C0280122E0420E511C86
:101AA000F801A080B18036FE03C0692D70E002C04D
:101AB0006FEF7FEFC5012DD14C01F32DF0683F2E64
:101AC000820133FC19C0822D90E088169906A0F49B
:101AD000B60180E290E033D12A94F5CFF50137FCCE
:101AE000859137FE81915F01B60190E028D12110E8
:101AF0002A9421E0821A91088114910479F7E1C0B7
:101B0000843611F0893639F5F80137FE07C0608157
:101B10007181828193810C5F1F4F08C06081718148
:101B2000072E000C880B990B0E5F1F4FF32DFF76CD
:101B30003F2E97FF09C090958095709561957F4FD6
:101B40008F4F9F4FF0683F2E2AE030E0A30133D142
:101B5000882E861844C0853731F4232D2F7EB22E6F
:101B60002AE030E025C0932D997FB92E8F36C1F041
:101B700018F4883579F0AEC0803719F0883721F035
:101B8000A9C0E92FE061BE2EB4FE0DC0FB2DF460AC
:101B9000BF2E09C034FE0AC0292F2660B22E06C00F
:101BA00028E030E005C020E130E002C020E132E072
:101BB000F801B7FE07C060817181828193810C5F5B
:101BC0001F4F06C06081718180E090E00E5F1F4F63
:101BD000A301F1D0882E8618FB2DFF773F2E36FE0D
:101BE0000DC0232D2E7FA22E891458F434FE0BC075
:101BF00032FC09C0832D8E7EA82E05C0B82CA32CE4
:101C000003C0B82C01C0B92CA4FE0FC0FE01E80D22
:101C1000F11D8081803321F49A2D997EA92E09C06F
:101C2000A2FE06C0B394B39404C08A2D867809F04E
:101C3000B394A3FC10C0A0FE06C0B21480F4280C1C
:101C4000922C9B180DC0B21458F4B60180E290E0BB
:101C500076D0B394F8CFB21418F42B1802C0982C95
:101C6000212CA4FE0FC0B60180E390E068D0A2FE54
:101C700016C0A1FC03C088E790E002C088E590E0B0
:101C8000B6010CC08A2D867851F0A1FE02C08BE20D
:101C900001C080E2A7FC8DE2B60190E050D089142B
:101CA00030F4B60180E390E04AD09A94F8CF8A9459
:101CB000F301E80DF11D8081B60190E040D0811064
:101CC000F6CF222009F44ECEB60180E290E037D064
:101CD0002A94F7CFF6018681978102C08FEF9FEF9C
:101CE0002B960FB6F894DEBF0FBECDBFDF91CF911C
:101CF0001F910F91FF90EF90DF90CF90BF90AF902A
:101D00009F908F907F906F905F904F903F902F901B
:101D10000895FC010590615070400110D8F780953E
:101D200090958E0F9F1F0895FC01615070400190A7
:101D30000110D8F7809590958E0F9F1F08950F93EF
:101D40001F93CF93DF93FB01238121FD03C08FEF0E
:101D50009FEF2CC022FF16C0468157812481358118
:101D60004217530744F4A081B1819D012F5F3F4F7B
:101D7000318320838C93268137812F5F3F4F3783B8
:101D8000268314C08B01EC01FB010084F185E02D5A
:101D90000995892BE1F6D80116968D919C9117979C
:101DA000019617969C938E931697CE01DF91CF9153
:101DB0001F910F910895FA01AA27283051F120317F
:101DC00081F1E8946F936E7F6E5F7F4F8F4F9F4FCF
:101DD000AF4FB1E03ED0B4E03CD0670F781F891F11
:101DE0009A1FA11D680F791F8A1F911DA11D6A0FDF
:101DF000711D811D911DA11D20D009F468943F9192
:101E00002AE0269F11243019305D3193DEF6CF0190
:101E10000895462F4770405D4193B3E00FD0C9F756
:101E2000F6CF462F4F70405D4A3318F0495D31FDC3
:101E30004052419302D0A9F7EACFB4E0A695979516
:101E4000879577956795BA95C9F7009761057105EC
:101E500008959B01AC010A2E069457954795379536
:101E60002795BA95C9F7620F731F841F951FA01D90
:061E70000895F894FFCF75
:101E7600FF03FF034100FD019103A30370426C6160
:101E8600636B00576869746500537465656C00413F
:101E96006C756D696E756D00423A00573A00533A9B
:101EA60000413A002569004974656D20536F7274CC
:101EB6006572003E5374617274002043616C6962FE
:101EC6007261746500205374617274003E43616CE4
:101ED600696272617465003E537465707065720064
:101EE600204F70746963616C2053002053746570D1
:101EF600706572003E4F70746963616C20530051C7
:101F0600756575650066006200476F616C3A00434F
:101F160075723A0044656C61793A0030062805000E
:00000001FF
