:10000000CAC20000F1C20000EFC2000072C40000CA
:1000100030C50000E9C20000E7C20000E5C20000F0
:10002000E3C20000E1C20000DFC20000DDC2000048
:10003000DBC20000D9C20000D7C20000D5C2000058
:10004000D3C20000D1C20000CFC20000CDC2000068
:10005000CBC200000C94ED0EC7C20000C5C2000068
:10006000C3C20000C1C20000BFC20000BDC2000088
:10007000BBC20000BBC30000B7C20000B5C2000095
:10008000B3C20000B1C20000AFC20000ADC20000A8
:10009000ABC20000A9C2000000000000003E5B4FA0
:1000A0005B3E3E6B4F6B3E1C3E7C3E1C183C7E3CD8
:1000B000181C577D571C1C5E7F5E1C00183C1800E6
:1000C000FFE7C3E7FF0018241800FFE7DBE7FF3076
:1000D000483A060E2629792926407F050507407FE4
:1000E00005253F5A3CE73C5A7F3E1C1C08081C1C57
:1000F0003E7F14227F22145F5F005F5F06097F014D
:100100007F006689956A606060606094A2FFA29437
:1001100008047E040810207E201008082A1C080805
:100120001C2A08081E101010100C1E0C1E0C303853
:100130003E3830060E3E0E06000000000000005F54
:1001400000000007000700147F147F14242A7F2A70
:100150001223130864623649562050000807030032
:10016000001C2241000041221C002A1C7F1C2A087E
:10017000083E0808008070300008080808080000E1
:1001800060600020100804023E5149453E00427F55
:10019000400072494949462141494D331814127FA4
:1001A0001027454545393C4A494931412111090744
:1001B0003649494936464949291E000014000000C5
:1001C0004034000000081422411414141414004197
:1001D00022140802015909063E415D594E7C121154
:1001E000127C7F494949363E414141227F4141418C
:1001F0003E7F494949417F090909013E4141517307
:100200007F0808087F00417F41002040413F017F77
:10021000081422417F404040407F021C027F7F043F
:1002200008107F3E4141413E7F090909063E415188
:10023000215E7F09192946264949493203017F0178
:10024000033F4040403F1F2040201F3F4038403F79
:10025000631408146303047804036159494D43008F
:100260007F4141410204081020004141417F0402C6
:10027000010204404040404000030708002054545D
:1002800078407F284444383844444428384444283B
:100290007F385454541800087E090218A4A49C788E
:1002A0007F0804047800447D40002040403D007FEA
:1002B0001028440000417F40007C047804787C08CA
:1002C0000404783844444438FC182424181824249E
:1002D00018FC7C08040408485454542404043F4483
:1002E000243C4040207C1C2040201C3C4030403CB2
:1002F00044281028444C9090907C4464544C440012
:100300000836410000007700000041360800020175
:100310000204023C2623263C1EA1A161123A404061
:10032000207A3854545559215555794122545478DE
:1003300042215554784020545579400C1E52721277
:100340003955555559395454545939555454580000
:1003500000457C410002457D420001457C407D1204
:1003600011127DF0282528F07C5455450020545466
:100370007C547C0A097F4932494949323A44444411
:100380003A324A4848303A4141217A3A424020784C
:10039000009DA0A07D3D4242423D3D4040403D3C4D
:1003A00024FF2424487E4943662B2FFC2F2BFF0972
:1003B00029F620C0887E0903205454794100004466
:1003C0007D413048484A32384040227A007A0A0A51
:1003D000727D0D19317D2629292F282629292926C4
:1003E00030484D4020380808080808080808382F09
:1003F00010C8ACBA2F102834FA00007B0000081493
:100400002A142222142A1408AA005500AAAA55AABE
:1004100055AA000000FF00101010FF00141414FF74
:10042000001010FF00FF1010F010F0141414FC0066
:100430001414F700FF0000FF00FF1414F404FC1470
:100440001417101F10101F101F1414141F00101069
:1004500010F0000000001F101010101F10101010DE
:10046000F010000000FF101010101010101010FFFE
:1004700010000000FF140000FF00FF00001F101715
:100480000000FC04F414141710171414F404F400FE
:1004900000FF00F714141414141414F700F71414C4
:1004A00014171410101F101F141414F4141010F04B
:1004B00010F000001F101F0000001F14000000FCBF
:1004C000140000F010F01010FF10FF141414FF14AB
:1004D0001010101F00000000F010FFFFFFFFFFF0E2
:1004E000F0F0F0F0FFFFFF0000000000FFFF0F0F33
:1004F0000F0F0F3844443844FC4A4A4A347E020203
:100500000606027E027E0263554941633844443C3C
:1005100004407E201E2006027E020299A5E7A599CE
:100520001C2A492A1C4C7201724C304A4D4D303005
:1005300048784830BC625A463D3E494949007E01F0
:1005400001017E2A2A2A2A2A44445F444440514A0F
:10055000444040444A51400000FF0103E080FF0056
:100560000008086B6B083612362436060F090F0692
:10057000000018180000001010003040FF010100BA
:100580001F01011E00191D1712003C3C3C3C0000DD
:1005900000000000560911241FBECFEFD0E2DEBFDD
:1005A000CDBF12E0A0E0B1E0EAECF6E200E00BBF64
:1005B00002C007900D92AE31B107D9F726E0AEE147
:1005C000B2E001C01D92A634B207E1F712E0CBEC15
:1005D000D2E004C02197FE010E947F10CA3CD107DF
:1005E000C9F737D50C946313DCC210BAEAE7F0E020
:1005F000808180688083808187608083ECE7F0E081
:100600008081816480830895CF93DF93EC01809192
:100610002B028830C0F520910401309105018091B2
:100620000001909101012817390740F480910401DD
:1006300090910501909301018093000184E392E081
:100640007BD320E531E040E050E060E070E084E3FF
:1006500092E01BD49E0140E150E060E070E084E352
:1006600092E013D420912B0230E040E250E060E0B1
:1006700070E084E392E03FD484E392E06ED3809113
:100680002B02883040F210922B02DF91CF91089517
:1006900084E392E051D320E531E040E050E060E0B7
:1006A00070E084E392E0F1D322E131E040E150E0F8
:1006B00060E070E084E392E0E8D320E030E040E2E4
:1006C00050E060E070E084E392E015D484E392E0CF
:1006D00044D378940E94610C82E191E095DF80918F
:1006E000000190910101059790930D0180930C01F9
:1006F00088E191E089DF80910001909101010597E7
:1007000090930B0180930A018EE191E07DDF80914F
:1007100000019091010105979093090180930801D0
:1007200084E291E071DF80910001909101010597D1
:1007300090930701809306010E94660C84E392E087
:10074000FBD22DE231E040E050E060E070E084E375
:1007500092E09BD320910C0130910D0140E050E0DC
:1007600068E170E084E392E0C6D320E331E040E149
:1007700050E060E070E084E392E087D320910A01CA
:1007800030910B0140E150E068E170E084E392E0D9
:10079000B2D323E331E040E250E060E070E084E374
:1007A00092E073D3209108013091090140E250E0BA
:1007B00068E170E084E392E09ED326E331E040E319
:1007C00050E060E070E084E392E05FD320910601A6
:1007D0003091070140E350E068E170E084E392E08B
:1007E0008AD384E392E0B9D2F89408951F920F92CD
:1007F0000FB60F9211240BB60F922F933F938F9346
:100800009F93EF93FF9380911E028032A0F420917A
:1008100078003091790080911F0290912002820F20
:10082000931F9093200280931F0280911E028F5F7E
:1008300080931E0240C080911E028032E1F58091BB
:100840001F029091200296958795929582958F70C0
:1008500089279F7089279093200280931F0210920E
:100860001E0220911F02309120028091040190917C
:1008700005012817390740F480911F02909120024A
:10088000909305018093040120911F023091200272
:1008900080910201909103012817390740F480915B
:1008A0001F02909120029093030180930201109205
:1008B000200210921F02EAE7F0E0808180648083CA
:1008C000FF91EF919F918F913F912F910F900BBED0
:1008D0000F900FBE0F901F9018958AB1837F8AB931
:1008E0001DBAE9E6F0E08081806980838CE08DBBF1
:1008F00008951F920F920FB60F9211240BB60F920C
:100900002F933F934F935F936F937F938F939F9317
:10091000AF93BF93EF93FF9385E090E00E94611047
:100920004A9B15C08FEF93E09093050180930401DB
:1009300010921E021092200210921F02EAE7F0E0CD
:100940008081886080838081806480837DC04A99B3
:100950007BC0EAE7F0E08081877F808380818F7BA6
:1009600080832091040130910501809121029091B2
:1009700022028217930740F48091040190910501AF
:10098000909322028093210220910401309105016D
:1009900080910C0190910D018217930718F120911D
:1009A00004013091050180910A0190910B01821799
:1009B0009307D0F020910401309105018091080146
:1009C000909109018217930788F0209104013091DA
:1009D000050180910601909107018217930740F06D
:1009E00094E007C090E005C091E003C092E001C030
:1009F00093E080912B02883018F08AEA88B924C0ED
:100A000080912B0281110FC080912B028F5F809308
:100A10002B02E0912902F0E0E45DFD4F908381E03C
:100A20008093280211C080912B028F5F80932B024C
:100A3000809129028F5F877080932902E0912902BB
:100A4000F0E0E45DFD4F908384E08CBBFF91EF917B
:100A5000BF91AF919F918F917F916F915F914F91D6
:100A60003F912F910F900BBE0F900FBE0F901F90D4
:100A700018951F920F920FB60F9211240BB60F927A
:100A80002F933F934F935F936F937F938F939F9396
:100A9000AF93BF93EF93FF9385E090E00E946110C6
:100AA0004B996AC080914006882309F45FC0E091A9
:100AB0002A02F0E0E45DFD4F8081811106C0809143
:100AC00027028F5F8093270229C0E0912A02F0E07D
:100AD000E45DFD4F8081813031F4809126028F5F8B
:100AE000809326021BC0E0912A02F0E0E45DFD4FF6
:100AF0008081823031F4809125028F5F80932502BE
:100B00000DC0E0912A02F0E0E45DFD4F808183306A
:100B100029F4809124028F5F8093240280912B021C
:100B2000823018F410922B0227C080912A028F5F26
:100B30008770E0912A02F0E0E45DFD4F2081E82F0C
:100B4000F0E0E45DFD4F9081291729F091E090934A
:100B50003F061092400680932A0280912B0281501A
:100B600080932B0281E08093280206C082B18F73AC
:100B700082B981E08093230288E08CBBFF91EF91E2
:100B8000BF91AF919F918F917F916F915F914F91A5
:100B90003F912F910F900BBE0F900FBE0F901F90A3
:100BA00018951F920F920FB60F9211248F938AEA15
:100BB00088B98F910F900FBE0F901F9018956623E4
:100BC000D4F04034C0F4242F26952695269570E065
:100BD00030E8239F600D711D1124FC01E60FF71F03
:100BE000477081E090E002C0880F991F4A95E2F7B4
:100BF0009081892B80830895FF920F931F93CF9349
:100C0000DF93222361F0C42FF62E8C01D22FD40F54
:100C10004C2F6F2DC801D3DFCF5FCD13F9CFDF91FC
:100C2000CF911F910F91FF900895FF920F931F9303
:100C3000CF93DF93222361F0F42EC62F8C01D22FA5
:100C4000D60F4F2D6C2FC801BADFCF5FCD13F9CF70
:100C5000DF91CF911F910F91FF900895CF92DF9276
:100C6000EF92FF920F931F93CF93DF93EC01F62E39
:100C7000142FD22EE22EE61AE394C02EC41A2E2D83
:100C8000D4DF2E2D402F6F2DCE01CFDF2C2D412F05
:100C90006F2DCE01B1DF2C2D412F6D2DCE01ACDF9C
:100CA000DF91CF911F910F91FF90EF90DF90CF9048
:100CB00008956F927F928F929F92AF92BF92CF9240
:100CC000DF92EF92FF920F931F93CF93DF936C010C
:100CD000642EE11002C0C2DF20C0041B2F5F261B60
:100CE000822E912C18141904C4F4762EA12CB12C48
:100CF000E02EF12C162DC0E0D0E0412F672DC6016B
:100D00005EDF21961F5FEC16FD06BCF78FEFA81A79
:100D1000B80A7394A814B90469F7DF91CF911F91B1
:100D20000F91FF90EF90DF90CF90BF90AF909F908A
:100D30008F907F906F900895FC019C5F1192E8174F
:100D4000F907E1F70895CF93DF93EC019C5FD4D5C9
:100D5000CE01F2DFDF91CF910895BC019C5F21C6E7
:100D600008952F923F924F925F926F927F928F924F
:100D70009F92AF92BF92CF92DF92EF92FF920F932A
:100D80001F93CF93DF9300D000D01F92CDB7DEB773
:100D90005C014B8348013701CD826A832C2C260EDF
:100DA00030E06901CC0CDD1CCC0CDD1C2C0D3D1D94
:100DB000C90188569F4F6C01362E1982442E98E047
:100DC000490EE981E53009F441C0F60114913FC0B4
:100DD00010FF11C0FD81F13029F44C816A81C501F9
:100DE000EEDE1CC0EE24E3940F2D222D452D632D45
:100DF000C5015FDF13C06814790481F08D818130F3
:100E000029F44C816A81C501DADE08C0EE24E3943E
:100E10000F2D222D452D632DC5014BDF16959D818C
:100E2000590EF90EEC81EF5FEC83E411D1CFF9811B
:100E3000FF5FF983390E290E8A818F5F8A839FEFC6
:100E4000C91AD90AF63009F0BCCF07C010E05B80A0
:100E5000F52CED81FE0E5C82BBCF0F900F900F90B2
:100E60000F900F90DF91CF911F910F91FF90EF9016
:100E7000DF90CF90BF90AF909F908F907F906F90BA
:100E80005F904F903F902F9008956F927F928F9236
:100E90009F92AF92BF92CF92EF92FF920F931F93C8
:100EA000CF93F901C62F20812223C1F05F013A01BF
:100EB0004C018FEFA81AB80A6C2F70E06894CC240C
:100EC000C1F8E12CF12C00E010E0A301C40149DFDE
:100ED000C45FF50121915F012111EECFCF911F91E8
:100EE0000F91FF90EF90CF90BF90AF909F908F9019
:100EF0007F906F9008958F929F92AF92BF92CF9202
:100F0000DF92EF92FF920F931F93CF93DF93CDB7B2
:100F1000DEB76C015B014A01EDB6FEB62A30310541
:100F20004CF02436310544F0283E43E0340734F0D9
:100F300087E005C082E003C083E001C084E04DB7D4
:100F40005EB7481B51090FB6F8945EBF0FBE4DBF88
:100F50000DB71EB70F5F1F4F3F932F9389E391E0AB
:100F60009F938F931F930F930E948810202F312FF0
:100F7000A401B501C60189DF0F900F900F900F906B
:100F80000F900F900FB6F894FEBE0FBEEDBEDF912E
:100F9000CF911F910F91FF90EF90DF90CF90BF9076
:100FA000AF909F908F9008950895FC0160831092F8
:100FB000B90080E28093B8000895DC0184EA809350
:100FC000BC00ECEBF0E090819923ECF79091B90034
:100FD000987F11969C931197983011F09031B9F445
:100FE0008C918093BB0084E88093BC00ECEBF0E034
:100FF00090819923ECF79091B900987F11969C937A
:10100000983139F081E0903429F480E0089581E04E
:10101000089580E00895DC016093BB0084E880932C
:10102000BC00ECEBF0E090819923ECF79091B900D3
:10103000987F11969C9381E0983209F480E008959E
:1010400084E98093BC00ECEBF0E0808184FDFDCF6F
:101050000895F894E1E6F0E080E8808310828DB195
:101060008E708DB987B18FEF87B984B18F7184B9D4
:1010700085B1806E85B98DB18F7C8DB98EB180635D
:101080008EB9B3DA00D40E94551027DCFCD3CFD43C
:101090001DD48FEC11D45BD5D0E002E0DD24D394D5
:1010A000ED2E0F2EF3E0FF2EF02D14E0C02E02D116
:1010B000CD2F659902C02DD1CD2D1F9902C0FAD038
:1010C000CE2D1D99F6CF84E190E0FBD71D9BFECF7E
:1010D00084E190E0F6D7C13081F0CCE2D0E05E014F
:1010E0000F2EF0E9CF2ED12CF02D0F2EFEE5EF2E96
:1010F000F12CF02D02EC10E05EC03AD1C02F6599C2
:10110000BFC0C43009F0BCC0B8C0C23009F0BAC01A
:10111000BCC0659BFECF84E190E0D3D74BD1C12FFB
:10112000EECFC33009F0B5C0B7C01F9BFECF84E13E
:1011300090E0C7D73FD1C12FE2CFC43009F0B3C090
:10114000AFC01D99DCCF84E190E0BBD71D9BFECFE3
:1011500084E190E0B6D7C330D1F49ADA80E090E031
:10116000FC01E45DFD4F1082019688309105C1F7C6
:10117000D0932A02D09329021D99FECF84E190E0FA
:10118000A0D71D9BFECF84E190E09BD7B6CFC230A5
:1011900011F4DDD48BCFC43009F0B1CFEDD4ADCF95
:1011A0001E9B09C01F9902C049D1FACF888185FDD5
:1011B000F7CF2ED2F5CF85D344D478943FD1809108
:1011C0002802882309F448C0F89480913F068823B8
:1011D00069F080913F06823021F484E690E071D777
:1011E00003C082E390E06DD710923F06E0912A029F
:1011F000F0E0E45DFD4F8081811105C0109343064E
:101200000093420626C0E0912A02F0E0E45DFD4F23
:101210008081813029F4F0924306E092420619C0A1
:10122000E0912A02F0E0E45DFD4F8081823029F4F4
:10123000D0924306C09242060CC0E0912A02F0E030
:10124000E45DFD4F8081833021F4B0924306A0928B
:101250004206109228027894888184FF05C080910C
:101260003606882309F4AACF82B18F7382B984E647
:1012700090E027D7F894E2D093CFBED0CF2D3FCFC8
:10128000659B43CF1F9B4DCF04C084E190E019D7ED
:1012900040CF1F9B52CF07C084E190E012D745CFCB
:1012A00067D0CC2D2CCF1E994CCF01CF84E392E098
:1012B0004ACD0895EF920F9384E392E03DDD2CE355
:1012C00031E040E050E060E070E084E392E0DDDD9A
:1012D000EE24E39401E12FE740E160E084E392E053
:1012E000E8DC28E431E044E150E060E070E084E3D1
:1012F00092E0CBDD2FE431E044E250E060E070E0CA
:1013000084E392E0C2DD84E392E027DD0F91EF9069
:101310000895EF920F9384E392E00EDD2CE331E029
:1013200040E050E060E070E084E392E0AEDDEE2467
:10133000E39401E12FE740E160E084E392E0B9DC6F
:101340002AE531E044E150E060E070E084E392E0BF
:101350009CDD21E631E044E250E060E070E084E3AF
:1013600092E093DD84E392E0F8DC0F91EF90089532
:1013700084E392E0E1DC2CE631E040E050E060E024
:1013800070E084E392E081DD27E731E040E150E066
:1013900060E070E084E392E078DD20E831E040E254
:1013A00050E060E070E084E392E06FDD84E392E07F
:1013B000D4CC089584E392E0BFDC2BE831E040E038
:1013C00050E060E070E084E392E05FDD26E931E028
:1013D00040E150E060E070E084E392E056DD20E818
:1013E00031E040E250E060E070E084E392E04DDD07
:1013F00084E392E0B2CC089584E392E09DDC2BE894
:1014000031E040E050E060E070E084E392E03DDDF8
:1014100027E731E040E150E060E070E084E392E0F3
:1014200034DD2FE931E040E250E060E070E084E339
:1014300092E02BDD84E392E090CC0895EF920F933D
:10144000CF93DF9384E392E077DC20910201309127
:10145000030140E050E060E070E084E392E04BDDA7
:10146000209121023091220240E050E068E470E0D7
:1014700084E392E040DDEE24E39401E12FE740E1D4
:1014800060E084E392E015DCCCE2D2E0288130E039
:1014900044E150E060E070E084E392E02CDD2981DB
:1014A00030E044E150E06CE070E084E392E023DD62
:1014B0002A8130E044E150E068E170E084E392E0AA
:1014C0001ADD2B8130E044E150E064E270E084E317
:1014D00092E011DD2C8130E044E150E060E370E007
:1014E00084E392E008DD2D8130E044E150E06CE3DC
:1014F00070E084E392E0FFDC2E8130E044E150E0D4
:1015000068E470E084E392E0F6DC2F8130E044E1AF
:1015100050E064E570E084E392E0EDDC20912B0282
:1015200030E044E150E06CE670E084E392E0E3DC1C
:1015300060912A0270E0CB01880F991F680F791F14
:10154000660F771F660F771F2AEA31E044E250E00A
:1015500084E392E09ADC6091290270E0CB01880F6D
:10156000991F680F791F660F771F660F771F2CEA88
:1015700031E044E250E084E392E087DC84E392E0EF
:10158000ECDBDF91CF910F91EF90089584E392E02F
:10159000D3DB2EEA31E040E050E060E070E084E32D
:1015A00092E073DC209142063091430640E050E027
:1015B0006CE370E084E392E09EDC24EB31E040E1F8
:1015C00050E060E070E084E392E05FDC209142064E
:1015D0003091430640E150E06CE370E084E392E038
:1015E0008ADC29EB31E040E250E060E070E084E327
:1015F00092E04BDC2091110130E040E250E068E4E1
:1016000070E084E392E077DC84E392E0A6CB089577
:1016100084E392E091DB20EC31E040E050E060E0D8
:1016200070E084E392E031DC20912B0230E040E076
:1016300050E060E670E084E392E05DDC29EC31E0AC
:1016400040E150E060E070E084E392E01EDC509105
:101650002B02209127024091260290912502809131
:10166000240230E0250F311D240F311D290F311DBB
:10167000280F311D40E150E060E670E084E392E025
:101680003ADC22ED31E040E250E060E070E084E3DB
:1016900092E0FBDB2091270230E040E250E068E17D
:1016A00070E084E392E027DC25ED31E040E250E099
:1016B0006CE370E084E392E0E8DB2091260230E006
:1016C00040E250E064E570E084E392E014DC28ED51
:1016D00031E040E350E060E070E084E392E0D5DB8D
:1016E0002091250230E040E350E068E170E084E3BF
:1016F00092E001DC2BED31E040E350E06CE370E080
:1017000084E392E0C2DB2091240230E040E350E029
:1017100064E570E084E392E0EEDB84E392E01DCBCD
:1017200008950F931F93CF93C82F8B0184E392E00A
:1017300003DB980140E050E060E070E084E392E079
:10174000A4DB2C2F30E040E150E060E070E084E367
:1017500092E0D1DB84E392E000DBCF911F910F9107
:101760000895CF93C82F84E392E0E6DAC1111CC03C
:101770002EED31E040E050E060E070E084E392E084
:1017800084DB23EE31E040E150E060E070E084E390
:1017900092E07BDB28EE31E040E250E060E070E078
:1017A00084E392E072DB3BC0C130E1F42DEE31E026
:1017B00040E050E060E070E084E392E066DB22EF1E
:1017C00031E040E150E060E070E084E392E05DDB16
:1017D00028EE31E040E250E060E070E084E392E027
:1017E00054DB1DC0C230D9F42DEE31E040E050E0B2
:1017F00060E070E084E392E048DB23EE31E040E11A
:1018000050E060E070E084E392E03FDB27EF31E0FE
:1018100040E250E060E070E084E392E036DB84E395
:1018200092E09BDACF91089584E392E085DA2CEF81
:1018300031E040E050E060E070E084E392E025DBDE
:10184000209144063091450640E150E060E070E0B0
:1018500084E392E050DB2EEA31E040E250E060E0C9
:1018600070E084E392E011DB209142063091430660
:1018700040E350E060E070E084E392E03CDB84E32E
:1018800092E06BCA089584B1816184B981B1806CA2
:1018900081B9209AE0EBF0E08081836080838081D1
:1018A00080688083E1EBF0E080818260808380E863
:1018B0008093B300289808951092B2008093B300EB
:1018C000089582B18F73806482B9089582B18F7355
:1018D00082B908951F93CF93DF93EC01162F6DDB30
:1018E00060E0CE0198DB612FCE0195DBCE01A8DB55
:1018F000DF91CF911F910895CF93DF93EC0154DBDB
:1019000068E7CE0152DB6EEACE01E4DF65EDCE0181
:10191000E1DF60E8CE01DEDF68EACE01DBDF6FE306
:10192000CE01D8DF63EDCE01D5DF60E0CE01D2DF9E
:1019300060E4CE01CFDF6DE8CE01CCDF64E1CE0103
:10194000C9DF60E2CE01C6DF60E0CE01C3DF61EA3D
:10195000CE01C0DF68ECCE01BDDF6AEDCE01BADF9B
:1019600062E1CE01B7DF61E8CE01B4DF6FECCE01FA
:10197000B1DF69EDCE01AEDF61EFCE01ABDF6BED24
:10198000CE01A8DF60E4CE01A5DF64EACE01A2DFCC
:1019900066EACE019FDF6FEACE019CDFDF91CF9137
:1019A0000895CF92DF92EF92FF920F931F93CF9300
:1019B000DF93082F192F7B0161E28CDF60E0802F1D
:1019C000912F88DF6FE7802F912F84DF62E2802FD5
:1019D000912F80DF60E0802F912F7CDF67E0802FE8
:1019E000912F78DFE7018CEFF81A802F912FE5DA3D
:1019F00060E4802F912F0FDB6E0180E1C80ED11CB7
:101A00006991802F912F07DBCC15DD05C9F7802F59
:101A1000912F16DBE601EC14FD0439F7DF91CF912D
:101A20001F910F91FF90EF90DF90CF90089581B1BB
:101A30008F6381B984B5826084BD86E987BD16BC99
:101A40000895EEE6F0E0808182608083A99A85B5F2
:101A5000856085BD0895BF92CF92DF92EF92FF928D
:101A60000F931F93CF93DF93181619060CF065C0E0
:101A70008B01EC01C12CD12C0F2EF2E1BF2EF02DE9
:101A80000F2EF7ECEF2EF12CF02D01151105D9F0EA
:101A90008091440690914506019690934506809367
:101AA0004406809141068F5F837080934106809148
:101AB000440690914506883C9105FCF0109245063D
:101AC000109244061AC08091440690914506892BD5
:101AD00029F4F0924506E092440609C0809144063C
:101AE0009091450601979093450680934406809116
:101AF0004106815083708093410682B1E091410696
:101B0000807CF0E0E75EFD4F9081892B82B98AE00E
:101B1000C816D10414F4BA9406C0CE018C199D09DC
:101B200044970CF4B3948B2D90E0CBD28FEFC81A6E
:101B3000D80ACC15DD0509F0A8CFDF91CF911F9110
:101B40000F91FF90EF90DF90CF90BF90089561E0EC
:101B500070E089E190E07FDF669B07C061E070E0A4
:101B600081E090E078DF6699F9CF88EC90E090937F
:101B700045068093440608950F2EF6E9CF2ED12C0A
:101B8000F02D0F2EFCE7EF2EF12CF02DCAE7D0E060
:101B90000F2EF9E7AF2EB12CF02D0F2EFFE02F2ED8
:101BA000F1E03F2EF02D0F2EFAE04F2EF2E05F2EE7
:101BB000F02D0F2EFEE06F2EF1E07F2EF02D0F2E78
:101BC000F5E08F2EF2E09F2EF02D80E0CADD10E0D0
:101BD0001F990DC084E190E074D21F9BFECF84E179
:101BE00090E06FD2112309F442C0115040C06599B2
:101BF0000DC084E190E065D2659BFECF84E190E06A
:101C000060D21F5F133098F112E031C01D992DC0D2
:101C100084E190E056D21D9BFECF84E190E051D24A
:101C200011110BC0909239068092380680E191E044
:101C300090933E0680933D061DC0113049F45092AA
:101C400039064092380670923E0660923D0612C0F8
:101C5000123081F464E172E07093390660933806C3
:101C600030923E0620923D0605C0649B6DC0812FD8
:101C700078DDAECFF70180818C7F826080838081A8
:101C8000806280838881877F8883E0913D06F09120
:101C90003E068081609138067091390642DD888168
:101CA00080648883888186FDFDCF80913A068830E4
:101CB000D0F4F501908120913B0630913C06A901BA
:101CC000490F511D369527953695279536952795B9
:101CD000BA01621B730B70933C0660933B068F5FE7
:101CE00080933A061BC0E0913D06F0913E0680913C
:101CF0003B0690913C069695879596958795969587
:101D000087958083E0913D06F0913E068081609149
:101D100038067091390605DD10923A061E99BFCF3C
:101D200084E190E0CED11E9BFECF84E190E0C9D14A
:101D3000F70180818C7F8160808380818F7D8083AB
:101D400088818860888341CF6FDD01DF7ADE109261
:101D5000430610924206789465991BC084E190E096
:101D6000B0D1659BFECF84E190E0ABD1809142067B
:101D700090914306C29790934306809342068091C8
:101D8000420690914306992324F4D0924306C092D0
:101D900042061F991CC084E190E093D11F9BFECFA7
:101DA00084E190E08ED18091420690914306C296E4
:101DB0009093430680934206809142069091430699
:101DC000883C910524F010924306109242061E9919
:101DD00002C0F894FACEDADBBFCF1F920F920FB693
:101DE0000F9211240BB60F922F933F934F935F9353
:101DF0008F939F93EF93FF938091420690914306B8
:101E00002091440630914506821B930B9C0122F4DD
:101E100022273327281B390B422F253610F048EC98
:101E2000421B4F3008F0B6C020913706222309F438
:101E300046C0109240064111AFC022E020933F06F9
:101E400010923706E0912A02F0E0E45DFD4F208118
:101E5000211107C022EC30E0309343062093420664
:101E60009BC0E0912A02F0E0E45DFD4F208121302B
:101E700039F42EE530E030934306209342068CC0BF
:101E8000E0912A02F0E0E45DFD4F2081223039F438
:101E900020E930E030934306209342067DC0E09174
:101EA0002A02F0E0E45DFD4F2081233009F074C088
:101EB0002CE230E030934306209342066DC020911F
:101EC0002302222309F462C01092400622B12F732C
:101ED000206422B910922302E0912A02F0E0E45D2E
:101EE000FD4F2081211106C0209127022F5F2093F2
:101EF000270229C0E0912A02F0E0E45DFD4F208135
:101F0000213031F4209126022F5F209326021BC03E
:101F1000E0912A02F0E0E45DFD4F2081223031F4AF
:101F2000209125022F5F209325020DC0E0912A0207
:101F3000F0E0E45DFD4F2081233029F4209124025C
:101F40002F5F2093240220912B02223018F410924C
:101F50002B0222C020912A022F5F2770E0912A02D3
:101F6000F0E0E45DFD4F5081E22FF0E0E45DFD4FD5
:101F70003081531719F031E03093370620932A024D
:101F800020912B02215020932B0206C021E02093A8
:101F9000400602C0109240069C01215031092336B0
:101FA000310520F08C392FEF9207DCF48091440644
:101FB0009091450601969093450680934406809142
:101FC000440690914506883C910524F01092450600
:101FD00010924406809141068F5F83708093410682
:101FE00024C09C012C593F4F2436310518F084360B
:101FF0009105DCF0809144069091450601979093FD
:1020000045068093440680914406909145069923A5
:1020100034F487EC90E090934506809344068091D9
:102020004106815083708093410682B1E091410660
:10203000807CF0E0E75EFD4F9081892B82B94F31C3
:10204000D0F09091110180910F01891760F013C0B9
:102050009091110180911001891780F416BC809134
:10206000110187BD13C090910E0180911101891B50
:1020700080931101F3CF443158F3F0CF90910E01CA
:1020800080911101890F80931101E8CFFF91EF91A9
:102090009F918F915F914F913F912F910F900BBE28
:1020A0000F900FBE0F901F901895E1E8F0E080812F
:1020B0008860808388EE93E0909389008093880005
:1020C0000895AC01E1E8F0E0908192609083109275
:1020D000850010928400B19A20E030E02417350783
:1020E00044F4B19902C0B19BFECFB19A2F5F3F4F2C
:1020F000F5CFE1E8F0E08081887F80830895EE0FDE
:10210000FF1F0024001C0BBE0790F691E02D0994E0
:102110000F931F93CF93DF93CDB7DEB72E970FB6F4
:10212000F894DEBF0FBECDBF0D891E8986E08C837B
:102130001A8309838FEF9FE79E838D83AE01475EED
:102140005F4F6F89788DCE01019610D0EF81F885B1
:10215000E00FF11F10822E960FB6F894DEBF0FBE6F
:10216000CDBFDF91CF911F910F9108952F923F9294
:102170004F925F926F927F928F929F92AF92BF9297
:10218000CF92DF92EF92FF920F931F93CF93DF9343
:10219000CDB7DEB72B970FB6F894DEBF0FBECDBF1D
:1021A0006C017B018A01FC0117821682838181FF09
:1021B000BFC1CE0101963C01F6019381F70193FD69
:1021C000859193FF81917F01882309F4ADC1853208
:1021D00039F493FD859193FF81917F01853221F43C
:1021E000B60190E0D6D1E8CF912C212C312CFFE123
:1021F000F315D8F08B3279F038F4803279F08332ED
:10220000A1F4232D20611DC08D3261F0803369F46B
:10221000232D216016C0832D8260382EE32DE460CB
:102220003E2E2AC0F32DF8601DC037FC2DC020EDD6
:10223000280F2A3040F08E32B9F436FC75C1232DB8
:102240002064322E19C036FE06C08AE0989E200D0A
:102250001124922E11C0EAE02E9E200D1124222E70
:10226000F32DF0623F2E08C08C3621F4832D806858
:10227000382E02C0883641F4F70193FD859193FF13
:1022800081917F018111B3CF982F9F7D9554933019
:1022900028F40C5F1F4F9FE399830DC0833631F004
:1022A000833771F0833509F055C020C0F801808173
:1022B00089830E5F1F4F88248394912C530112C091
:1022C0002801F2E04F0E511CF801A080B18036FECB
:1022D00003C0692D70E002C06FEF7FEFC5014ED1E2
:1022E0004C018201F32DFF773F2E15C0280122E01B
:1022F000420E511CF801A080B18036FE03C0692D4A
:1023000070E002C06FEF7FEFC5012DD14C01F32DBE
:10231000F0683F2E820133FC19C0822D90E08816B0
:102320009906A0F4B60180E290E033D12A94F5CF6B
:10233000F50137FC859137FE81915F01B60190E090
:1023400028D121102A9421E0821A91088114910445
:1023500079F7E1C0843611F0893639F5F80137FE96
:1023600007C060817181828193810C5F1F4F08C01B
:1023700060817181072E000C880B990B0E5F1F4F37
:10238000F32DFF763F2E97FF09C0909580957095AD
:1023900061957F4F8F4F9F4FF0683F2E2AE030E0CE
:1023A000A30133D1882E861844C0853731F4232DFC
:1023B0002F7EB22E2AE030E025C0932D997FB92ED2
:1023C0008F36C1F018F4883579F0AEC0803719F037
:1023D000883721F0A9C0E92FE061BE2EB4FE0DC000
:1023E000FB2DF460BF2E09C034FE0AC0292F2660E1
:1023F000B22E06C028E030E005C020E130E002C087
:1024000020E132E0F801B7FE07C06081718182816E
:1024100093810C5F1F4F06C06081718180E090E066
:102420000E5F1F4FA301F1D0882E8618FB2DFF777A
:102430003F2E36FE0DC0232D2E7FA22E891458F478
:1024400034FE0BC032FC09C0832D8E7EA82E05C041
:10245000B82CA32C03C0B82C01C0B92CA4FE0FC00B
:10246000FE01E80DF11D8081803321F49A2D997EC3
:10247000A92E09C0A2FE06C0B394B39404C08A2D4D
:10248000867809F0B394A3FC10C0A0FE06C0B21475
:1024900080F4280C922C9B180DC0B21458F4B6018D
:1024A00080E290E076D0B394F8CFB21418F42B18F1
:1024B00002C0982C212CA4FE0FC0B60180E390E04E
:1024C00068D0A2FE16C0A1FC03C088E790E002C05D
:1024D00088E590E0B6010CC08A2D867851F0A1FE07
:1024E00002C08BE201C080E2A7FC8DE2B60190E061
:1024F00050D0891430F4B60180E390E04AD09A9429
:10250000F8CF8A94F301E80DF11D8081B60190E0C7
:1025100040D08110F6CF222009F44ECEB60180E2E1
:1025200090E037D02A94F7CFF6018681978102C0D8
:102530008FEF9FEF2B960FB6F894DEBF0FBECDBF87
:10254000DF91CF911F910F91FF90EF90DF90CF908F
:10255000BF90AF909F908F907F906F905F904F90C3
:102560003F902F900895FC0105906150704001103C
:10257000D8F7809590958E0F9F1F0895FC016150AC
:10258000704001900110D8F7809590958E0F9F1F95
:1025900008950F931F93CF93DF93FB01238121FDB8
:1025A00003C08FEF9FEF2CC022FF16C046815781DA
:1025B000248135814217530744F4A081B1819D01E4
:1025C0002F5F3F4F318320838C93268137812F5F8C
:1025D0003F4F3783268314C08B01EC01FB0100843D
:1025E000F185E02D0995892BE1F6D80116968D919C
:1025F0009C911797019617969C938E931697CE01F0
:10260000DF91CF911F910F910895FA01AA272830E9
:1026100051F1203181F1E8946F936E7F6E5F7F4FAF
:102620008F4F9F4FAF4FB1E03ED0B4E03CD0670F2B
:10263000781F891F9A1FA11D680F791F8A1F911D7E
:10264000A11D6A0F711D811D911DA11D20D009F4CE
:1026500068943F912AE0269F11243019305D319310
:10266000DEF6CF010895462F4770405D4193B3E0F9
:102670000FD0C9F7F6CF462F4F70405D4A3318F0A0
:10268000495D31FD4052419302D0A9F7EACFB4E051
:10269000A6959795879577956795BA95C9F7009709
:1026A0006105710508959B01AC010A2E06945795AA
:1026B000479537952795BA95C9F7620F731F841F01
:0A26C000951FA01D0895F894FFCFA8
:1026CA00FF03FF03FF03140078007A03CA03083CE0
:1026DA009696426C61636B0057686974650053741F
:1026EA0065656C00416C756D696E756D00423A00E6
:1026FA00573A00533A00413A002569004974656D1A
:10270A0020536F72746572003E53746172740020B4
:10271A0043616C69627261746500205374617274FA
:10272A00003E43616C696272617465003E486F6D78
:10273A00652053746570002053746570706572006B
:10274A00204F70746963616C20530020486F6D6577
:10275A002053746570003E53746570706572003E54
:10276A004F70746963616C20530066006200476FA2
:10277A00616C3A004375723A0044656C61793A00BB
:10278A004F6E2042656C743A0054536F72746564DC
:10279A003A00423D00573D00533D00413D003E4D49
:1027AA0061780020496E6300204D696E00204D61FA
:1027BA0078003E496E63003E4D696E004375727241
:1027CA00656E743A004D61783A00496E63725661DB
:0E27DA006C7565004D696E3A003006280500EA
:00000001FF
